:100000000C9462000C94AA130C9483130C948A0031
:100010000C948A000C948A000C948A000C948A0038
:100020000C948A000C948A000C948A000C948A0028
:100030000C948A000C948A000C948A000C948A0018
:100040000C9439130C948A000C9407130C94E1124D
:100050000C948A000C948A000C948A000C948A00F8
:100060000C94D1130C948A00000000002400270097
:100070002A0000000000250028002B0000000000DE
:1000800023002600290004040404040404040202DA
:100090000202020203030303030301020408102007
:1000A0004080010204081020010204081020000012
:1000B0000008000201000003040700000000000027
:1000C0000000F01411241FBECFEFD8E0DEBFCDBF7B
:1000D00015E0A0E0B1E0E6E9FAE302C005900D9278
:1000E000AC34B107D9F726E0ACE4B5E001C01D920D
:1000F000A03FB207E1F710E0C2E6D0E004C02197CC
:10010000FE010E94431DC136D107C9F70E94851523
:100110000C94491D0C9400004F925F926F927F9255
:100120008F929F92AF92BF92CF92DF92EF92FF9207
:100130000F931F93CF93DF93C090BC06D090BD0662
:10014000E090BE06F090BF068091B8069091B90687
:10015000A091BA06B091BB06C81AD90AEA0AFB0AEE
:100160006091C0067091C1068091C2069091C3064D
:100170009B01AC010E94351C4B015C016091C806DB
:100180007091C9068091CA069091CB069B01AC0183
:100190000E94651A9B01AC01C501B4010E94D61AE8
:1001A0000E94481BC114D104E104F10409F0D3C03A
:1001B00062307105810591050CF0F2C01092D006F5
:1001C0001092D1061092D2061092D3061092C00659
:1001D0001092C1061092C2061092C3061092E00659
:1001E0001092E1061092E2061092E306DF91CF91A1
:1001F0001F910F91FF90EF90DF90CF90BF90AF9045
:100200009F908F907F906F905F904F900895101601
:10021000110612061306DCF46C157D058E059F058C
:1002200024F42091AE062111BBC09B01AC018827AC
:100230009927DC01821B930BA40BB50B8093E0067E
:100240009093E106A093E206B093E306A9C00115DE
:1002500011052105310509F4A3C06C157D058E0536
:100260009F050CF09DC08091AE06882309F498C0CC
:1002700030952095109501951F4F2F4F3F4F0093BC
:10028000E0061093E1062093E2063093E30688C06F
:10029000011511052105310509F482C0882499242E
:1002A00054018C189D08AE08BF08681579058A05A9
:1002B0009B050CF075C08091AE06811171C0D8CF3E
:1002C000C090E806D090E906E090EA06F090EB06D0
:1002D000A7019601C701B6010E94651A2B013C01D6
:1002E000C501B4010E94801B20E030E040E850E4EA
:1002F0000E94351C20E030E040E85FE30E94651A70
:100300009B01AC01C301B2010E94D61A9B01AC0152
:10031000C701B6010E94641AD62FC72F6C01E09066
:10032000EC06F090ED060091EE061091EF069701B5
:10033000A8010E94301C18161CF4ED2EFC2E86011C
:10034000C701D8018093E8069093E906A093EA06D6
:10035000B093EB064CC00091E0061091E1062091AD
:10036000E2063091E3061C141D041E041F040CF465
:100370004ECF10161106120613060CF089CF002777
:10038000112798010C191D092E093F0960177107E3
:10039000820793070CF049CF2091AE06211145CF7B
:1003A0008090E0069090E106A090E206B090E3060F
:1003B00081149104A104B10409F082CF8091E40674
:1003C0009091E506A091E606B091E7068093E806D5
:1003D0009093E906A093EA06B093EB0681E01C1423
:1003E0001D041E041F040CF080E08093AE063FEF56
:1003F000831A930AA30AB30A8092E0069092E10658
:10040000A092E206B092E306C090E806D090E9061A
:10041000E090EA06F090EB06C701B6010E944F1B80
:100420006093D0067093D1068093D2069093D30642
:10043000A701960160E074E284E799E40E94D61A6D
:100440006093C0067093C1068093C2069093C30662
:100450002091AE062111CACE90586093C0067093C9
:10046000C1068093C2069093C306C0CE0F931F931C
:100470000091B8061091B9062091BA063091BB06DA
:10048000DC01CB01800F911FA21FB31F0091BC069E
:100490001091BD062091BE063091BF0680179107CE
:1004A000A207B30761F08093BC069093BD06A093AA
:1004B000BE06B093BF061F910F910C948C001F9144
:1004C0000F9108958F929F92AF92BF92CF92DF9239
:1004D000EF92FF920F931F93CF93DF938B01D82F4F
:1004E000C92F8090C4069090C506A090C606B09013
:1004F000C70675016401F7FAF094F7F8F0949B01D0
:10050000482F592FC701B6010E94301C181674F0ED
:1005100098014D2F5C2FC501B4010E94D11A7501BD
:10052000640187FD03C06801ED2EFC2E20E030E061
:10053000A901C701B6010E94D11A81111DC01092F4
:10054000D0061092D1061092D2061092D306C09215
:10055000C006D092C106E092C206F092C306DF91B7
:10056000CF911F910F91FF90EF90DF90CF90BF90B0
:10057000AF909F908F900895A701960160E074E27C
:1005800084E799E40E94D61A9F770E944F1B6093DC
:10059000D0067093D1068093D2069093D306C1E023
:1005A00020E030E0A901C701B6010E94301C1816F6
:1005B0000CF0C0E0C093AE06CACFAF92BF92CF920C
:1005C000DF92EF92FF920F931F93CF93DF936C0113
:1005D0007B018B01040F151FEB015E01AE18BF08F4
:1005E000C017D10759F06991D601ED91FC910190A6
:1005F000F081E02DC6010995892B79F7C501DF91BE
:10060000CF911F910F91FF90EF90DF90CF90BF900F
:10061000AF900895FC01538D448D252F30E0842F39
:1006200090E0821B930B541710F0CF96089501971A
:100630000895FC01918D828D981761F0A28DAE0F07
:10064000BF2FB11D5D968C91928D9F5F9F73928F8E
:1006500090E008958FEF9FEF0895FC01918D828DBA
:10066000981731F0828DE80FF11D858D90E0089587
:100670008FEF9FEF0895FC01918D228D892F90E0DF
:10068000805C9F4F821B91098F739927089583E0A7
:1006900096E00E943B0321E0892B09F420E0822FA1
:1006A000089580E090E0892B29F00E944703811192
:1006B0000C9400000895FC01A48DA80FB92FB11D62
:1006C000A35ABF4F2C91848D90E001968F73992788
:1006D000848FA689B7892C93A089B1898C91837066
:1006E00080648C93938D848D981306C00288F3895F
:1006F000E02D80818F7D80830895EF92FF920F938C
:100700001F93CF93DF93EC0181E0888F9B8D8C8DBD
:1007100098131AC0E889F989808185FF15C09FB7B1
:10072000F894EE89FF896083E889F9898081837074
:10073000806480839FBF81E090E0DF91CF911F9123
:100740000F91FF90EF900895F62E0B8D10E00F5F44
:100750001F4F0F731127E02E8C8D8E110CC00FB61A
:1007600007FCFACFE889F989808185FFF5CFCE01B2
:100770000E945B03F1CFEB8DEC0FFD2FF11DE35ACF
:10078000FF4FF0829FB7F8940B8FEA89FB89808135
:100790008062CFCFCF93DF93EC01888D8823B9F0AF
:1007A000AA89BB89E889F9898C9185FD03C080817C
:1007B00086FD0DC00FB607FCF7CF8C9185FFF2CFF9
:1007C000808185FFEDCFCE010E945B03E9CFDF91F1
:1007D000CF910895833081F028F4813099F08230F0
:1007E000A9F008958730A9F08830C9F08430B1F4B9
:1007F000809180008F7D03C0809180008F778093EF
:100800008000089584B58F7784BD089584B58F7D69
:10081000FBCF8091B0008F778093B00008958091D6
:10082000B0008F7DF9CFCF93DF93282F30E0F9010F
:10083000E255FF4F8491F901E656FF4FD491F9013B
:10084000EA57FF4FC491CC23A1F081110E94EA0323
:10085000EC2FF0E0EE0FFF1FE458FF4FA591B4918D
:10086000EC91ED2381E090E009F480E0DF91CF91FD
:10087000089580E090E0FACF1F93CF93DF93282F65
:1008800030E0F901E255FF4F8491F901E656FF4F40
:10089000D491F901EA57FF4FC491CC23A9F0162F48
:1008A00081110E94EA03EC2FF0E0EE0FFF1FEE58DB
:1008B000FF4FA591B4918FB7F894EC91111108C036
:1008C000D095DE23DC938FBFDF91CF911F910895E8
:1008D000DE2BF8CFCF93DF9390E0FC01E656FF4F7D
:1008E00024918A579F4FFC0184918823C9F090E09E
:1008F000880F991FFC01E859FF4FA591B491FC01A5
:10090000EE58FF4FC591D49161110DC09FB7F89477
:100910008C91209582238C938881282328839FBFE4
:10092000DF91CF910895623051F49FB7F8943C91D4
:10093000822F809583238C93E8812E2BEFCF8FB766
:10094000F894EC912E2B2C938FBFEACFCF93DF93AB
:10095000EC0161E085E00E946A04209731F460E0D8
:1009600085E0DF91CF910C943C04CF3FD10511F489
:1009700061E0F6CFE3EBF0E0E491E33029F140F4FD
:10098000E130B1F0E230D9F0C038D1058CF7E7CFD3
:10099000E73021F1E83051F1E430B1F78091800087
:1009A000806280938000D0938B00C0938A0004C043
:1009B00084B5806884BDC7BDDF91CF91089584B5AB
:1009C000806284BDC8BDF8CF80918000806880932C
:1009D0008000D0938900C0938800EECF8091B00052
:1009E00080688093B000C093B300E6CF8091B000E0
:1009F00080628093B000C093B400DECF3FB7F8941C
:100A00008091F3059091F405A091F505B091F6055C
:100A100026B5A89B05C02F3F19F00196A11DB11D59
:100A20003FBFBA2FA92F982F8827BC01CD01620F95
:100A3000711D811D911D42E0660F771F881F991F50
:100A40004A95D1F708958F929F92AF92BF92CF921D
:100A5000DF92EF92FF920E94FE044B015C0184E161
:100A6000C82ED12CE12CF12C0E94FE0468197909C2
:100A70008A099B09683E734081059105A8F321E02E
:100A8000C21AD108E108F10888EE880E83E0981EAA
:100A9000A11CB11CC114D104E104F10429F7FF9099
:100AA000EF90DF90CF90BF90AF909F908F90089580
:100AB0000895CF93DF93FC012381222359F1EC01A8
:100AC00061E084810E946A0461E08D810E946A0471
:100AD0008B81843011F08830B1F461E08E810E9406
:100AE0006A0461E08F810E946A048FA58F3F91F0B4
:100AF00061E00E946A046EA581E068278FA5DF91FE
:100B0000CF910C943C04833011F0863071F761E092
:100B10008E81E9CFDF91CF910895CF93DF93FC01D0
:100B200023812223A9F0EC010190F081E02D0480C3
:100B3000F581E02D60E009958FA58F3F49F061E0D8
:100B40000E946A046EA58FA5DF91CF910C943C049E
:100B5000DF91CF910895DC01ED91FC9124813581E5
:100B60004770552766277727415051096109710958
:100B7000473051056105710560F4FA01EE53FA4FF3
:100B80000C94431DCC05CE05D005D205D405D60561
:100B9000D80561E0F901099465E0FCCF64E0FACF83
:100BA00066E0F8CF62E0F6CF6AE0F4CF68E0F2CF1B
:100BB00069E0F0CFCF93DF93EC01CB01BA0126E0DF
:100BC00030E040E050E00E94241D62307105810554
:100BD000910589F16CF46115710581059105D1F0DC
:100BE0006130710581059105F9F0DF91CF9108958C
:100BF000643071058105910561F124F1653071055D
:100C00008105910591F7E881F9810480F581E02D56
:100C100066E006C0E881F9810480F581E02D64E09A
:100C2000CE01DF91CF910994E881F9810480F581AB
:100C3000E02D65E0F5CFE881F9810480F581E02DB4
:100C400061E0EECFE881F9810480F581E02D63E079
:100C5000E7CFE881F9810480F581E02D62E0E0CF03
:100C6000DC01ED91FC910480F581E02D4370552766
:100C700066277727423051056105710571F04330D1
:100C800051056105710559F0413051056105710546
:100C900011F065E0099466E0FDCF6AE0FBCF69E002
:100CA000F9CFCF93DF93EC01CB01BA0123E030E021
:100CB00040E050E00E94241D6130710581059105DE
:100CC00099F06230710581059105A9F0672B682BB9
:100CD000692BC1F4E881F9810480F581E02D64E09D
:100CE000CE01DF91CF910994E881F9810480F581EB
:100CF000E02D61E0F5CFE881F9810480F581E02DF8
:100D000062E0EECFDF91CF910895DC01ED91FC918F
:100D10000480F581E02D4370552766277727423000
:100D200051056105710571F043305105610571058B
:100D300059F0413051056105710511F062E00994E7
:100D400063E0FDCF61E0FBCF60E0F9CFCF93DF93AD
:100D5000EC01E881F9810480F581E02D8A8160E071
:100D6000811162E0CE010995E881F9810480F58165
:100D7000E02D8A8161E0811163E0CE0109958CA5A7
:100D80009DA58230910538F0880F991F880F991F13
:100D900005970197F1F7E881F9810480F581E02D4D
:100DA0008A8160E0811162E0CE01DF91CF910994E8
:100DB000CF93DF93EC0120E030E0A9016C897D89BD
:100DC0008E899F890E94301C18162CF4E8A9F9A975
:100DD000DF91CF910994EAA9FBA9FACFCF92DF92D4
:100DE000EF92FF920F931F93CF93DF93DC01139643
:100DF000CC91C43039F0C83059F1C33019F0C63045
:100E000049F1C2E08C010C5F1F4FF12CE12CC62E82
:100E1000D12CD1E0F8016481C6010E2C02C0959559
:100E200087950A94E2F780FD6D270F5F1F4F808141
:100E30000E943C04BFEFEB1AFB0AEC1658F3DF915B
:100E4000CF911F910F91FF90EF90DF90CF90089579
:100E5000C4E0D8CFC3E0D6CFDC011396EC91139752
:100E6000E93008F038C0F0E0E85CF84F0C94431D1E
:100E7000410747074D07530759076B075F076B0784
:100E80006507ED91FC910084F185E02D0994ED91C9
:100E9000FC910284F385E02DF9CFED91FC9104845F
:100EA000F585E02DF3CFED91FC910684F785E02DDB
:100EB000EDCFED91FC910088F189E02DE7CFED9128
:100EC000FC910288F389E02DE1CFED91FC9104883B
:100ED000F589E02DDBCF0895CF92DF92EF92FF925C
:100EE0000E94FE046B017C018091D4069091D5068E
:100EF000A091D606B091D706B701A601481B590BA1
:100F00006A0B7B0B8091D0069091D106A091D206FE
:100F1000B091D306481759076A077B07A8F180915B
:100F2000B8069091B906A091BA06B091BB0620917F
:100F3000AE06222329F10196A11DB11D8093B806AA
:100F40009093B906A093BA06B093BB064091B80639
:100F50005091B9066091BA067091BB068CEA96E092
:100F60000E942C07C092D406D092D506E092D606F5
:100F7000F092D70681E0FF90EF90DF90CF90089538
:100F80000197A109B109DACF80E0F5CF85ED809313
:100F9000BC008091BC0084FDFCCF1092C805089570
:100FA0002091A205260F3327331F21323105ECF49F
:100FB0002091C805FC0190E080E0243069F082E0D7
:100FC0000895A091A2052191AC0140585A4FA40F59
:100FD000B52FB11D2C930196861798F38091A20529
:100FE000680F6093A20580E0089581E00895E09184
:100FF0007E05F0917F05309729F010927D051092C3
:101000007C0509940895CF93DF93AC01E0917A05B4
:10101000F0917B053097F1F09091790580917805FA
:101020009817C0F090E0292F30E02617370754F4C6
:10103000D901A85ABA4F240F351FE90128812C93F2
:101040009F5FF1CF1092790560937805CB01DF9116
:10105000CF910994DF91CF9108950895E09179059A
:1010600080917805E81730F4F0E0E85AFA4F808173
:1010700090E008958FEF9FEF08959091790580910A
:1010800078052FEF3FEF981748F4E92FF0E0E85A82
:10109000FA4F208130E09F5F90937905C901089550
:1010A0008091780590917905891B990B0895CF93CC
:1010B000DF93CB01EA01642F0E94D007CE01DF91BC
:1010C000CF910895CF93DF931F92CDB7DEB7698399
:1010D00061E0CE0101960E94D00781E090E00F9080
:1010E000DF91CF91089590E080E008958F929F92D4
:1010F000AF92BF92CF92DF92EF92FF924091BC06E7
:101100005091BD066091BE067091BF068091B806F1
:101110009091B906A091BA06B091BB066A017B0115
:10112000C81AD90AEA0AFB0AC0926D01D0926E0170
:10113000E0926F01F09270018093690190936A01CF
:10114000A0936B01B0936C01C090C006D090C10613
:10115000E090C206F090C306481759076A077B075C
:1011600009F4A2C08090540590905505A0905605B2
:10117000B0905705809166018160809366018091EF
:10118000680181FF3EC0A7019601C501B4010E941C
:10119000D11A87FF16C080916D0190916E01A091C8
:1011A0006F01B0917001181619061A061B06FCF49F
:1011B00080916601826080936601809166018B7FD9
:1011C0001EC0A7019601C501B4010E94301C18166B
:1011D0000CF049C080916D0190916E01A0916F015A
:1011E000B0917001181619061A061B060CF78091AB
:1011F00066018D7F80936601809166018460809393
:101200006601A70196016091540570915505809182
:101210005605909157050E94D11A8823D9F0C092A3
:101220005405D0925505E0925605F09257052FB718
:10123000F8948091EF059091F005A091F105B0919F
:10124000F2052FBF8093500590935105A09352054E
:10125000B0935305FF90EF90DF90CF90BF90AF9089
:101260009F908F9008952FB7F8948091EF059091FB
:10127000F005A091F105B091F2052FBF4091500506
:10128000509151056091520570915305841B950B47
:10129000A60BB70B8B3F9105A105B10508F4B1CFA3
:1012A000809166018D7F87CF809166018E7F8093CC
:1012B0006601F6CF0E94760880914E0560914E053A
:1012C0004EE2481B413208F040E250E070E06E59B7
:1012D0007E4F80EA96E00C94570808954F925F92F3
:1012E0006F927F928F929F92AF92BF92CF92DF9236
:1012F000EF92FF926B017C0120E030E0A9010E9497
:10130000D11A87FF04C0F7FAF094F7F8F0948090B0
:10131000C8069090C906A090CA06B090CB06A70157
:101320009601C501B4010E94D11A882309F456C060
:101330006091E0067091E1068091E2069091E306EB
:101340000E94801B2B013C01A7019601C501B4013D
:101350000E94D61A9B01AC01C301B2010E94351C48
:101360000E94481B6093E0067093E1068093E206BA
:101370009093E306A701960160E070E080E090E4BE
:101380000E94D61A0E94A81C26E53EE04DE25FE3CB
:101390000E94351C20E034E244E759E40E94351CE9
:1013A0006093E4067093E5068093E6069093E70663
:1013B000C092C806D092C906E092CA06F092CB0647
:1013C000FF90EF90DF90CF90BF90AF909F908F9065
:1013D0007F906F905F904F900C948C00FF90EF90F7
:1013E000DF90CF90BF90AF909F908F907F906F9045
:1013F0005F904F900895FC0101900020E9F731972C
:10140000AF01481B590BBC0183E096E00C94DD0250
:101410008EEC91E00C94FB098F929F92AF92BF9259
:101420000F931F93CF93DF93CDB7DEB7A1970FB67E
:10143000F894DEBF0FBECDBF19A2423008F44AE0D7
:101440008E010F5D1F4F842E912CB12CA12CA50174
:1014500094010E94021DE62FB901CA01EA30F4F49A
:10146000E05DD801EE938D01232B242B252B79F7FA
:1014700090E080E0109719F0CD010E94FB09A19641
:101480000FB6F894DEBF0FBECDBFDF91CF911F9195
:101490000F91BF90AF909F908F900895E95CE1CF3E
:1014A000CF92DF92EF92FF92CF93DF936B017C019B
:1014B0006DE283E096E00E947D03EC0166277727CA
:1014C000CB016C197D098E099F094AE00E940C0A24
:1014D0008C0F9D1FDF91CF91FF90EF90DF90CF9009
:1014E00008950C94FB09CF93DF930E94FB09EC0154
:1014F0000E94080A8C0F9D1FDF91CF91089561E033
:101500008FE00E946A0460E08FE00E943C0481E06A
:101510008093010681ED91E00C94730A60E08FE006
:101520000E943C0460E08FE00E946A0480EE91E03B
:101530000E94730A109201060895CF93DF9397FFDC
:101540000AC00E94500AEC010E94080A8C0F9D1FDD
:10155000DF91CF9108954AE00E940C0AF4CFCF9317
:10156000DF93682F70E090E080E040E10E940C0A79
:10157000EC010E94080A8C0F9D1FDF91CF91089506
:101580004F925F926F927F928F929F92AF92BF9293
:10159000CF92DF92EF92FF920F931F93CF936B0145
:1015A0007C01742EAC019B010E94E81C882399F0F9
:1015B0008EEF91E0CF911F910F91FF90EF90DF9010
:1015C000CF90BF90AF909F908F907F906F905F90E3
:1015D0004F900C94FB0946015701E894B7F82FEFA0
:1015E0003FEF4FE75FE7C501B4010E94E81C81119E
:1015F0000DC02FEF3FEF4FE75FE7C501B4010E9439
:10160000D11A18161CF482E092E0D4CF2FEF3FEFEE
:101610004FE75FE4C701B6010E94301C18161CF4A6
:1016200086E092E0C7CF2FEF3FEF4FE75FECC701B7
:10163000B6010E94D11A87FDF3CF20E030E0A90166
:10164000C701B6010E94D11A10E000E087FF0AC06E
:101650006DE283E096E00E947D038C01F7FAF0943E
:10166000F7F8F094C0E060E070E080E09FE37C1663
:1016700041F020E030E040E251E40E94D61ACF5F12
:10168000F6CFA70196010E94651A2B013C010E942A
:101690004F1B4B015C014AE00E940C0A7C01E00EEA
:1016A000F11ECC23C1F1C501B4010E947E1B9B0138
:1016B000AC01C301B2010E94641A4B015C016EE2ED
:1016C00083E096E00E947D03E80EF91EC15018F1F8
:1016D00020E030E040E251E4C501B4010E94351C35
:1016E0002B013C010E944F1B4B01B12CA12C4AE065
:1016F000C501B4010E940C0AE80EF91EC501B4012F
:101700000E947E1B9B01AC01C301B2010E94641ABE
:101710004B015C01DBCFC701CF911F910F91FF906F
:10172000EF90DF90CF90BF90AF909F908F907F9081
:101730006F905F904F900895CF93DF9342E00E94A7
:10174000C00AEC010E94080A8C0F9D1FDF91CF9107
:101750000895CF92DF92EF92FF92809168018860A6
:101760008093680120E030E0A9016091C00670918B
:10177000C1068091C2069091C3060E94D11A8823A7
:1017800029F060E070E0CB010E94620210928201B9
:1017900010928301109284011092850110924E01E3
:1017A00010924F01109250011092510120E030E050
:1017B000A9016091C4067091C5068091C6069091FA
:1017C000C7060E94D11A882309F452C01092C40699
:1017D0001092C5061092C6061092C70620E030E0AF
:1017E000A90160E074E284E799E40E94D61A60934C
:1017F000EC067093ED068093EE069093EF068091D1
:10180000E0069091E106A091E206B091E306181679
:1018100019061A061B0664F56091C0067091C10690
:101820008091C2069091C3069B01AC010E94351CB9
:101830006B017C016091C8067091C9068091CA064F
:101840009091CB069B01AC010E94651A9B01AC01F3
:10185000C701B6010E94D61A0E94481B6093E00699
:101860007093E1068093E2069093E3060E948C0059
:1018700010927A0110927B0110927C0110927D01EE
:1018800010924601109247011092480110924901AE
:1018900010927E0110927F011092800110928101BE
:1018A00010924A0110924B0110924C0110924D017E
:1018B00060E070E0CB010E9436021092710110923C
:1018C0007201109273011092740110923D011092F6
:1018D0003E0110923F01109240018091BC06909110
:1018E000BD06A091BE06B091BF06892B8A2B8B2B1B
:1018F00051F01092BC061092BD061092BE061092D6
:10190000BF060E948C00109276011092770110920F
:1019100078011092790110924201109243011092C5
:101920004401109245011092B8061092B906109227
:10193000BA061092BB061092BC061092BD06109219
:10194000BE061092BF061092E0061092E1061092B9
:10195000E2061092E3061092D0061092D106109281
:10196000D2061092D3061092C0061092C1061092B1
:10197000C2061092C3061092690110926A01109279
:101980006B0110926C011092350110923601109289
:10199000370110923801FF90EF90DF90CF900895BB
:1019A0000E94230582E00E941304892BA1F40E9467
:1019B000A90B809166018062809366018091670126
:1019C00083FF09C08CEA96E00E948D058091680132
:1019D00080618093680108950E94230583E00E943E
:1019E0001304892BA9F48AE092E00E94710A809185
:1019F000020681110DC080916601806180936601AD
:101A000081E0809302068091670185FD0C94A90B0B
:101A10000895CF92DF92EF92FF926B017C0123E356
:101A200033E343E550E40E94301C18163CF483E392
:101A3000C82EDC2C83E5E82E80E4F82E20E030E090
:101A40004FE753E4C701B6010E94351C23E333E39B
:101A500043E550E40E94D61A20E030E0A9010E943C
:101A6000651A0E94481B6B018CE092E00E94710A8B
:101A7000B601DD0C880B990B97FF0AC00E94500A33
:101A80000E94080A8C2DFF90EF90DF90CF90089570
:101A90004AE00E940C0AF4CFCF92DF92EF92FF92BD
:101AA0000F931F93CF93DF93EB017B0124E0E20EB2
:101AB000F11C8B016C01C61AD70AC601800F911F59
:101AC0000E944E1AF80181938F01EE15FF05A9F7C8
:101AD000CE01DF91CF911F910F91FF90EF90DF909A
:101AE000CF900895FF920F931F93CF93DF93EC0154
:101AF000F62E08811981C8010E944E1AF81621F0AD
:101B00006F2DC8010E94561ACE01DF91CF911F910F
:101B10000F91FF900895EF92FF920F931F93CF9331
:101B2000DF9300D0CDB7DEB787E192E00E94710A63
:101B300088EFE82E85E0F82E04E610E01A8309838A
:101B4000F70161917F01CE0101960E94720D0F5F36
:101B50001F4F0D36110591F70F900F90DF91CF9128
:101B60001F910F91FF90EF900895CF938091000601
:101B700081117FC087E480937C0080917A0080642B
:101B800080937A0080917A0086FDFCCF9091780056
:101B9000809179008927982789270A974CF489E151
:101BA00092E00E94730A81E0809300060E948B0DF0
:101BB0008091000681116DC080918F01883008F4FA
:101BC00070C080918F01883708F06BC0C0918F0181
:101BD0008091BC008A7B8093BC0060E082E10E941F
:101BE0003C0460E083E10E943C041092790510926D
:101BF000780510927D0510927C051092C80581E051
:101C00008093CA051092C90561E082E10E943C04FC
:101C100061E083E10E943C048091B9008E7F809353
:101C2000B9008091B9008D7F8093B90088E48093DA
:101C3000B80085E48093BC0087EF97E09093A105FE
:101C40008093A00583E098E09093A5058093A40578
:101C5000CC0FC093BA0086E692E190937B05809307
:101C60007A058AE599E090937F0580937E05CF9170
:101C70000895813009F0ACCF85E10E9413040197EB
:101C800009F096CF8DE292E00E94730A109200064E
:101C90008DCF813009F09CCF81E580938F01C1E524
:101CA00097CFC2E595CFEF92FF920F931F93CF93FB
:101CB000DF9300D0CDB7DEB783E492E00E94710AD3
:101CC00082E6E82E81E0F82E10E000E01A83098316
:101CD000F70161917F01CE0101960E94720D0F5FA5
:101CE0001F4F0E32110591F70F900F90DF91CF919A
:101CF0001F910F91FF90EF9008958F929F92AF9256
:101D0000BF92CF92DF92EF92FF92CF9390913101E9
:101D10009170809165018170C1E0981307C0809136
:101D20003101C0916501C827C695C17090913301FA
:101D30009170809167018170981316C09091330162
:101D400096959170809167018695817098130CC06B
:101D50009091330192FB992790F98091670182FB62
:101D6000882780F9981771F160916701617089E0A7
:101D70000E943C04609167016695617088E00E9452
:101D80003C046091670162FB662760F987E00E946E
:101D90003C04909167018091330190FB80F980931E
:101DA0003301909167018091330191FB81F9809318
:101DB0003301909167018091330192FB82F9809306
:101DC0003301C1E09091330193FB992790F9809101
:101DD000670183FB882780F9981353C390913301DF
:101DE000929591708091670182958170981349C393
:101DF0009091330195FB992790F98091670185FBBC
:101E0000882780F998133DC3909134019170809197
:101E100068018170981322C0909134019695917059
:101E20008091680186958170981318C09091340153
:101E300092FB992790F98091680182FB882780F9AD
:101E400098130CC09091340193FB992790F98091DD
:101E5000680183FB882780F9981709F19091680140
:101E60008091340190FB80F9809334019091680156
:101E70008091340191FB81F9809334019091680144
:101E80008091340192FB82F9809334019091680132
:101E90008091340193FB83F980933401C1E09091E8
:101EA00034019295917080916801829581709817A4
:101EB00089F08091680184FFE6C28CEA96E00E9476
:101EC0008D05909168018091340194FB84F9809391
:101ED0003401C1E080914F05882309F462C08091EC
:101EE000690190916A01A0916B01B0916C0180939E
:101EF000B8069093B906A093BA06B093BB06809338
:101F0000BC069093BD06A093BE06B093BF06109288
:101F1000E0061092E1061092E2061092E30610929B
:101F2000D0061092D1061092D2061092D3061092CB
:101F3000C0061092C1061092C2061092C30680918C
:101F4000690190916A01A0916B01B0916C0180933D
:101F5000350190933601A0933701B0933801109268
:101F60004F058091690190916A01A0916B01B09138
:101F70006C018093760190937701A0937801B093E0
:101F800079018091690190916A01A0916B01B091F2
:101F90006C018093420190934301A0934401B0935C
:101FA00045018091F705882309F46BC08091710188
:101FB00090917201A0917301B0917401892B8A2BC9
:101FC0008B2B09F06CC28090C0069090C106A09047
:101FD000C206B090C30620E030E0A901C501B401FB
:101FE0000E94D11A882381F1A5019401C501B40191
:101FF0000E94351C6B017C016091C8067091C90676
:102000008091CA069091CB069B01AC010E94651A93
:102010009B01AC01C701B6010E94D61A0E94481B61
:102020006B017C0120E030E0A901C501B4010E94F0
:10203000301C18160CF02CC2C701B6016F5F7F4F21
:102040008F4F9F4F0E94360220E030E0A90160913F
:10205000C0067091C1068091C2069091C3060E948D
:10206000D11A882329F060E070E0CB010E9462025F
:102070001092600180916601877F809366011092C3
:10208000F705809175018935A1F4809171019091D6
:102090007201A0917301B09174018093F80590933F
:1020A000F905A093FA05B093FB050E948B0D1092E1
:1020B000750140914601509147016091480170912E
:1020C000490180917A0190917B01A0917C01B091AE
:1020D0007D01481759076A077B0709F488C060919A
:1020E0007A0170917B0180917C0190917D010E9429
:1020F0006D096B017C0120E030E0A9010E94D11A3A
:1021000087FF04C0F7FAF094F7F8F094A70196015E
:102110006091C4067091C5068091C6069091C7066D
:102120000E94D11A882309F451C0C092C406D092EB
:10213000C506E092C606F092C706A701960160E0C8
:1021400074E284E799E40E94D61A6093EC067093D7
:10215000ED068093EE069093EF068091E006909155
:10216000E106A091E206B091E306181619061A06D8
:102170001B0664F56091C0067091C1068091C2068D
:102180009091C3069B01AC010E94351C6B017C0140
:102190006091C8067091C9068091CA069091CB06DD
:1021A0009B01AC010E94651A9B01AC01C701B601FD
:1021B0000E94D61A0E94481B6093E0067093E106C5
:1021C0008093E2069093E3060E948C0080917A014E
:1021D00090917B01A0917C01B0917D01809346019B
:1021E00090934701A0934801B0934901C1E0409109
:1021F0004A0150914B0160914C0170914D018091C9
:102200007E0190917F01A0918001B09181014817DA
:1022100059076A077B0741F160917E0170917F0148
:1022200080918001909181010E946D096B017C0178
:1022300020E030E0A9010E94D11A882321F0C701D3
:10224000B6010E946E0980917E0190917F01A0915C
:102250008001B091810180934A0190934B01A0933A
:102260004C01B0934D01C1E04091420150914301B6
:1022700060914401709145018091760190917701C0
:10228000A0917801B0917901481759076A077B0737
:1022900079F18091760190917701A0917801B091C8
:1022A00079014091BC065091BD066091BE067091C7
:1022B000BF0684179507A607B70751F08093BC06A1
:1022C0009093BD06A093BE06B093BF060E948C00FB
:1022D0008091760190917701A0917801B091790178
:1022E0008093420190934301A0934401B093450130
:1022F0008091680180FD04C08091680182FF3EC02A
:102300008090C0069090C106A090C206B090C3060F
:102310006091820170918301809184019091850187
:102320000E946D09A50194010E94D11A882331F100
:102330006091820170918301809184019091850167
:102340000E946D096B017C01A50194010E94D11AC4
:10235000882321F0C701B6010E94620280918201A8
:1023600090918301A0918401B091850180934E01E9
:1023700090934F01A0935001B09351018091860139
:10238000843CC1F485E492E00E94710A809182014C
:1023900090918301A0918401B09185018093FC0507
:1023A0009093FD05A093FE05B093FF050E948B0D51
:1023B0001092860140915301509154016091550152
:1023C000709156018091870190918801A0918901B7
:1023D000B0918A01481759076A077B0789F08091F5
:1023E000870190918801A0918901B0918A01809321
:1023F000530190935401A0935501B0935601C1E04D
:1024000040915701509158016091590170915A01C2
:1024100080918B0190918C01A0918D01B0918E01E2
:10242000481759076A077B0789F080918B019091C3
:102430008C01A0918D01B0918E01809357019093F2
:102440005801A0935901B0935A01C1E090915B01EA
:1024500080918F01981771F180918F0180935B01BA
:10246000109200060E948B0D0E94B50DCF91FF9037
:10247000EF90DF90CF90BF90AF909F908F900C9493
:10248000530EC1E0C1CC8CEA96E00E94590519CDEB
:10249000C701B6016095709580959095D3CD6091F8
:1024A00071017091720180917301909174010E9489
:1024B0003602DECDC111DACFCF91FF90EF90DF90E1
:1024C000CF90BF90AF909F908F900895DF92EF9242
:1024D000FF920F931F93CF93DF938C0180EA96E0D6
:1024E0000E943D0880934E05D12C780181E0E81AC6
:1024F000F108CD2DD0E0CE15DF059CF580EA96E001
:102500000E943D0820914E052C0F3D2F311D2E328B
:10251000310528F5A0914E05E0914E05EC0FFD2FF9
:10252000F11DEE59FE4FAC0FBD2FB11DA050BF4F96
:102530009C91909520819223908390914E05E091FB
:102540004E05EC0FFD2FF11DEE59FE4FC90FD11DA9
:10255000C050DF4F988198238081892B8083D3944A
:10256000C8CF60E080E10E943C0402301105F4F025
:1025700080914E05803150F480914E05800F912F4F
:10258000911D44971CF081E08093F70580914E05E2
:10259000883050F480914E05080F111D0C30110544
:1025A0001CF081E080934F050E947D0E61E080E188
:1025B000DF91CF911F910F91FF90EF90DF900C94DE
:1025C0003C041F920F920FB60F9211242F933F934A
:1025D0004F935F936F937F938F939F93AF93BF932B
:1025E000EF93FF9383E096E00E945B03FF91EF91EE
:1025F000BF91AF919F918F917F916F915F914F911B
:102600003F912F910F900FBE0F901F9018951F9222
:102610000F920FB60F9211242F938F939F93EF93E6
:10262000FF93E0911306F09114068081E091190662
:10263000F0911A0682FD1BC0908180911C068F5F6D
:102640008F7320911D06821741F0E0911C06F0E087
:10265000ED5FF94F958F80931C06FF91EF919F914D
:102660008F912F910F900FBE0F901F901895808122
:10267000F4CF1F920F920FB60F9211242F933F9316
:102680008F939F93AF93BF938091EF059091F00547
:10269000A091F105B091F2053091EE0523E0230FF2
:1026A0002D3758F50196A11DB11D2093EE0580939D
:1026B000EF059093F005A093F105B093F20580919A
:1026C000F3059091F405A091F505B091F6050196FA
:1026D000A11DB11D8093F3059093F405A093F5051A
:1026E000B093F605BF91AF919F918F913F912F913C
:1026F0000F900FBE0F901F90189526E8230F02969B
:10270000A11DB11DD2CF1F920F920FB60F921124AF
:102710002F933F934F935F936F937F938F939F93E9
:10272000AF93BF93EF93FF93E0915E01F0915F0150
:102730000995FF91EF91BF91AF919F918F917F91FB
:102740006F915F914F913F912F910F900FBE0F901E
:102750001F9018951F920F920FB60F9211242F936E
:102760003F934F935F936F937F938F939F93AF9319
:10277000BF93EF93FF93E0915C01F0915D010995A8
:10278000FF91EF91BF91AF919F918F917F916F9149
:102790005F914F913F912F910F900FBE0F901F901F
:1027A00018951F920F920FB60F9211242F933F93FB
:1027B0004F935F936F937F938F939F93AF93BF9349
:1027C000EF93FF938091B900887F803609F44AC067
:1027D000F0F5883209F4A7C018F5803109F49BC0E0
:1027E000B8F4882309F4F9C0883009F494C0FF9143
:1027F000EF91BF91AF919F918F917F916F915F9179
:102800004F913F912F910F900FBE0F901F901895F1
:10281000883109F488C0803251F78093C70514C00D
:10282000803409F49DC040F48033B9F38833F9F65D
:102830008093C70585ECB0C0803509F485C0883524
:1028400009F496C0883499F60E94C607D0CF88391B
:1028500009F48CC038F5883729F050F4883611F027
:10286000803729F683E08093C8051092C60557C0CB
:10287000883809F47BC0803919F0803809F0B7CF67
:102880008091C605803208F071C0E091C60581E0F4
:102890008E0F8093C6058091BB00F0E0EA55FA4F99
:1028A00080833DC0803B39F0E0F4803A09F479C080
:1028B000883A09F09CCF84E08093C8051092A30564
:1028C0001092A205E091A005F091A10509958091D3
:1028D000A20581110FC081E08093A20510928005AE
:1028E00009C0803C09F4A6CF883C09F4A3CF883BFB
:1028F00009F07DCFE091A30581E08E0F8093A305C1
:10290000F0E0E058FA4F80818093BB009091A305DE
:102910008091A20529C08091ED058093BB0085ECD4
:102920008093BC0064CF9091EC058091EB059817E3
:1029300058F5E091EC0581E08E0F8093EC05F0E016
:10294000E553FA4F8081E9CFE091EC0581E08E0FED
:102950008093EC058091BB00F0E0E553FA4F808353
:102960009091EC058091EB059817C8F285E8D8CFD7
:10297000E091EC0581E08E0F8093EC058091BB0027
:10298000F0E0E553FA4F80838091CA0581115CCF56
:1029900081E08093C90584EA8093BC001092C80549
:1029A00026CF85EC8093BC001092C8058091C605A7
:1029B000803230F4E091C605F0E0EA55FA4F10821B
:1029C0006091C60570E0E091A405F091A50586EA46
:1029D00095E009951092C6050ACF1092C70534CF2D
:1029E000E3E0F6E01382128288EE93E0A0E0B0E02C
:1029F00084839583A683B78324E931E031832083E0
:102A000025EC30E03587248724EC30E037872687B3
:102A100020EC30E0318B208B21EC30E0338B228BAB
:102A200022EC30E0358B248B26EC30E0378B268B84
:102A3000118E128E138E148EE0EAF6E0138212824B
:102A400084839583A683B78386EA91E0918380830C
:102A5000ECEAF6E088EB91E09183808381E0838368
:102A60001486158616861786108A118A128A138A8A
:102A7000148A158A168A178A80E090E0A0E8BFE3DE
:102A8000808F918FA28FB38F148E158E168E178E16
:102A900080A391A3A2A3B3A314A215A216A217A266
:102AA00021E030E035A724A72FEF27A710A611A615
:102AB00012A613A621E1248326E0258324E02683A1
:102AC00025E0278316A614AA15AA16AA17AA10AEDF
:102AD00011AE12AE13AE14AE15AE16AE17AE809395
:102AE000EC069093ED06A093EE06B093EF061282EB
:102AF0001086118612861386CF010E94590560E068
:102B000070E080E89FE30C946E09CF93DF9300D0D0
:102B100000D0CDB7DEB7789484B5826084BD84B52B
:102B2000816084BD85B5826085BD85B5816085BDC8
:102B300080916E00816080936E0010928100809180
:102B40008100826080938100809181008160809308
:102B50008100809180008160809380008091B1002D
:102B600084608093B1008091B00081608093B00058
:102B700080917A00846080937A0080917A008260EC
:102B800080937A0080917A00816080937A008091AE
:102B90007A00806880937A001092C100E091130659
:102BA000F091140682E08083E0910F06F091100608
:102BB0001082E0911106F091120680E1808310925C
:102BC0001B06E0911706F091180686E08083E091DD
:102BD0001506F0911606808180618083E0911506CC
:102BE000F0911606808188608083E0911506F0914F
:102BF0001606808180688083E0911506F0911606A4
:102C000080818F7D808387E492E00E94730A61E077
:102C100089E00E946A0461E088E00E946A0461E041
:102C200087E00E946A0460E089E00E943C0460E062
:102C300088E00E943C0460E087E00E943C0462E07F
:102C400085E10E946A0462E082E00E946A0462E018
:102C500083E00E946A048AE08093DB0661E00E94C0
:102C60006A046091DA06BB24B3946B258091DB067D
:102C70000E943C041092B4061092B506B092DA0697
:102C80008CEA96E00E9459058FE790E00E94A60426
:102C90000E948E0ABE016F5F7F4F90E080E00E942D
:102CA0004C0D89819A81AB81BC818F3F9F4FAF4F83
:102CB000BF4F11F40E94530EB2E68B2EB1E09B2E53
:102CC000B12CA12CC5010E944E1AF40181934F0131
:102CD000FFEFAF1ABF0A2EE2A216B10499F71092C5
:102CE000750110928601109271011092720110927A
:102CF000730110927401109282011092830110925C
:102D00008401109285011092690110926A0110925B
:102D10006B0110926C0110926D0110926E01109275
:102D20006F0110927001BE016F5F7F4F84E690E0EB
:102D30000E944C0D89819A81AB81BC818F3F9F4F4E
:102D4000AF4FBF4F11F40E948B0DF8EF8F2EF5E0BF
:102D50009F2EA4E6AA2EB12CC5010E944E1AF401A2
:102D600081934F01FFEFAF1ABF0A2DE6A216B104FF
:102D700099F78091F8059091F905A091FA05B09125
:102D8000FB050097A105B10569F08093710190934F
:102D90007201A0937301B093740181E08093F705F1
:102DA000109261018091FC059091FD05A091FE05B6
:102DB000B091FF050097A105B10541F08093820114
:102DC00090938301A0938401B09385010E947D0EAE
:102DD00080ED9CE090935D0180935C01809169009F
:102DE0008C7F826080936900E89A8CEE9CE09093DF
:102DF0005F0180935E0180916900837F886080938A
:102E00006900E99A0E94B50D82E592E00E94710A7C
:102E100080918F010E94AF0A70E0A72E70E0B72E5C
:102E2000E2E06E2E7724739483E096E00E943B03E9
:102E3000892B09F4F5C183E096E00E941903982ECE
:102E400080E79812CFC10E9476080E94080A8EE59A
:102E500092E00E94730A8CE692E00E94710A8091CF
:102E60006401803120F481E892E00E94710A60914F
:102E7000640170E090E080E040E10E940C0A8091E3
:102E80006301803120F481E892E00E94710A809110
:102E900063010E94AF0A83E892E00E94710A809168
:102EA000650180FF04C085E992E00E94710A80916B
:102EB000650181FF04C088EA92E00E94710A0E94C5
:102EC000080A8BEB92E00E94710A8091660180FFF4
:102ED0005AC189EC92E00E94710A8091660181FFDB
:102EE00004C081EE92E00E94710A8091660182FF27
:102EF00004C083EF92E00E94710A8091660183FF13
:102F000004C085E093E00E94710A8091660184FF0D
:102F100004C082E193E00E94710A8091660185FFFE
:102F200004C08FE193E00E94710A0E94080A8DE2BA
:102F300093E00E94710A20916701809167013091AE
:102F4000670181FB002700F910E0C801880F991F75
:102F500032FBEE24E0F8F12CA701440F551F440F7B
:102F6000551F842B952B20FBCC24C0F8D12C8C2909
:102F70009D298230910509F41AC10CF007C1009710
:102F800009F40DC1019709F40FC188E693E00E948E
:102F9000710A8091670183FF04C08EE693E00E946E
:102FA000710A8091670184FF04C085E893E00E9464
:102FB000710A8091670185FF04C086EA93E00E9450
:102FC000710A0E94080A80EC93E00E94710A8091C5
:102FD000680180FFF2C08CEC93E00E94710A80913E
:102FE000680184FF04C08AE094E00E94710A0E9494
:102FF000080A8AE194E00E94710A60916901709167
:103000006A0180916B0190916C010E949D0A8DE292
:1030100094E00E94710A60916D0170916E0180913F
:103020006F01909170010E949D0A8EE394E00E94CE
:10303000710A609171017091720180917301909198
:1030400074010E949D0A85E494E00E94710A8091B7
:1030500075010E94AF0A89E594E00E94710A6091AF
:1030600076017091770180917801909179010E94A9
:103070009D0A83E694E00E94710A60917A01709142
:103080007B0180917C0190917D010E946D090E94DD
:103090009C0B8FE694E00E94710A60917E01709112
:1030A0007F0180918001909181010E946D090E94B1
:1030B0009C0B87E694E00E94710A609182017091F6
:1030C000830180918401909185010E946D090E9485
:1030D0009C0B8EE794E00E94710A809186010E9409
:1030E000AF0A83E994E00E94710A609187017091B0
:1030F00088018091890190918A010E946D0943E0C5
:103100000E94C00A82EA94E00E94730A84EA94E072
:103110000E94710A60918B0170918C0180918D01E8
:1031200090918E010E946D0943E00E94C00A82EADC
:1031300094E00E94730A82EB94E00E94710A8091ED
:103140008F010E94AF0A82EC94E00E94710A6091A4
:10315000F8057091F9058091FA059091FB050E94A0
:103160009D0A8DEC94E00E94710A6091FC057091BB
:10317000FD058091FE059091FF054AE00E940C0A32
:103180000E94080A4DC086ED92E0A5CE83309105DD
:1031900089F0079709F0F9CE8CE593E002C08BE344
:1031A00093E00E94710AF1CE82E493E0FACF89E4C1
:1031B00093E0F7CF83E593E0F4CF8091680181FF3E
:1031C00003C088ED93E009CF8091680182FF03C0BE
:1031D0008DEE93E002CF8091680183FF00CF8EEFE8
:1031E00093E0FBCEE5E69E12D4C0912C812C9A820E
:1031F00089826FEFCE0101960E94720DFFEF8F1A48
:103200009F0A9A82898260E0CE0101960E94720D27
:1032100028E78216910459F789ED94E00E94730A19
:1032200083E00E941304019751F4809102068230DA
:1032300031F41092020681EF94E00E94730A8091AB
:1032400060018111B0C04091B8065091B9066091FB
:10325000BA067091BB068091BC069091BD06A09104
:10326000BE06B091BF06481759076A077B07A1F44D
:103270007092600180916601886080936601809100
:10328000670184FF09C08CEA96E00E948D05809159
:10329000680180618093680180910206813029F481
:1032A0008091660184FF609202068091010681117F
:1032B00086C080916001813051F48091650180FF6A
:1032C00006C081E095E00E94730A0E947F0A809107
:1032D0000206813051F48091650181FF06C086E1CC
:1032E00095E00E94730A0E947F0A4091BC065091AB
:1032F000BD066091BE067091BF068091B8069091A0
:10330000B906A091BA06B091BB06481759076A07DB
:103310007B0709F46CC080916101811115C08BE2BB
:1033200095E00E94730A60918B0170918C018091ED
:103330008D0190918E010E946D090E94090D90E00F
:103340000E94A604709261018091660185FD15C0FE
:103350008091680181FF66C08091D0069091D1066E
:10336000A091D206B091D306892B8A2B8B2B29F002
:103370000E946C0781110E948C00A114B10409F411
:1033800053CD0E944703882309F44ECD0E940000CC
:103390004BCD87EE94E00E94710A692D83E096E0A0
:1033A0000E947D03EDCE80916001813009F074CFE1
:1033B0008091660183FD70CF609260016DCF809136
:1033C0000106813009F091CF80916001823021F0B7
:1033D00080916001811189CF80910206823021F0B5
:1033E00080910206811181CF0E948E0A7ECF80914A
:1033F0006101813009F0A8CF8BE395E00E94730A48
:1034000060918701709188018091890190918A0172
:103410000E946D090E94090D90E00E94A60410927E
:10342000610192CF8091680182FF10C08091D00627
:103430009091D106A091D206B091D306892B8A2B08
:103440008B2B09F49ACF0E946C0797CF809168016B
:1034500080FF21C04091BC065091BD066091BE0620
:103460007091BF068091B8069091B906A091BA06F6
:10347000B091BB06481759076A077B0709F47DCF4F
:1034800084179507A607B7071CF47092AE06CECF37
:103490001092AE06CBCF809168016FCFF999FECF25
:1034A00092BD81BDF89A992780B50895262FF99984
:1034B000FECF1FBA92BD81BD20BD0FB6F894FA9A17
:1034C000F99A0FBE019608955058BB27AA270E946B
:1034D0007C1A0C94F61B0E94E81B38F00E94EF1B2C
:1034E00020F039F49F3F19F426F40C94E51B0EF4F8
:1034F000E095E7FB0C94DF1BE92F0E94071C58F3B3
:10350000BA17620773078407950720F079F4A6F5C8
:103510000C94291C0EF4E0950B2EBA2FA02D0B0154
:10352000B90190010C01CA01A0011124FF27591B08
:1035300099F0593F50F4503E68F11A16F040A22F0E
:10354000232F342F4427585FF3CF4695379527957F
:10355000A795F0405395C9F77EF41F16BA0B620B7E
:10356000730B840BBAF09150A1F0FF0FBB1F661FC5
:10357000771F881FC2F70EC0BA0F621F731F841F08
:1035800048F4879577956795B795F7959E3F08F02E
:10359000B0CF9395880F08F09927EE0F97958795F0
:1035A00008950E94BB1B08F481E008950E94EA1A66
:1035B0000C94F61B0E94EF1B58F00E94E81B40F091
:1035C00029F45F3F29F00C94DF1B51110C942A1C45
:1035D0000C94E51B0E94071C68F39923B1F3552353
:1035E00091F3951B550BBB27AA2762177307840716
:1035F00038F09F5F5F4F220F331F441FAA1FA9F3AC
:1036000035D00E2E3AF0E0E832D091505040E69599
:10361000001CCAF72BD0FE2F29D0660F771F881FFA
:10362000BB1F261737074807AB07B0E809F0BB0BED
:10363000802DBF01FF2793585F4F3AF09E3F510501
:1036400078F00C94DF1B0C942A1C5F3FE4F3983E47
:10365000D4F3869577956795B795F7959F5FC9F7EA
:10366000880F911D9695879597F90895E1E0660F6B
:10367000771F881FBB1F621773078407BA0720F0E4
:10368000621B730B840BBA0BEE1F88F7E09508954D
:103690000E944F1B6894B1110C942A1C08950E943B
:1036A0000F1C88F09F5798F0B92F9927B751B0F0A9
:1036B000E1F0660F771F881F991F1AF0BA95C9F7B6
:1036C00014C0B13091F00E94291CB1E008950C940F
:1036D000291C672F782F8827B85F39F0B93FCCF3C2
:1036E000869577956795B395D9F73EF49095809533
:1036F000709561957F4F8F4F9F4F0895E89409C053
:1037000097FB3EF490958095709561957F4F8F4F14
:103710009F4F9923A9F0F92F96E9BB279395F6952A
:10372000879577956795B795F111F8CFFAF4BB0FA8
:1037300011F460FF1BC06F5F7F4F8F4F9F4F16C00C
:10374000882311F096E911C0772321F09EE8872F96
:10375000762F05C0662371F096E8862F70E060E052
:103760002AF09A95660F771F881FDAF7880F9695CB
:10377000879597F90895990F0008550FAA0BE0E86F
:10378000FEEF16161706E807F907C0F01216130623
:10379000E407F50798F0621B730B840B950B39F463
:1037A0000A2661F0232B242B252B21F408950A26C9
:1037B00009F4A140A6958FEF811D811D089597F909
:1037C0009F6780E870E060E008959FEF80EC0895C7
:1037D00000240A94161617061806090608950024F0
:1037E0000A9412161306140605060895092E03946A
:1037F000000C11F4882352F0BB0F40F4BF2B11F4DE
:1038000060FF04C06F5F7F4F8F4F9F4F089557FD3C
:103810009058440F551F59F05F3F71F04795880F3E
:1038200097FB991F61F09F3F79F0879508951216D5
:1038300013061406551FF2CF4695F1DF08C0161681
:1038400017061806991FF1CF869571056105089432
:103850000895E894BB2766277727CB0197F9089549
:103860000E94BB1B08F48FEF08950E94481C0C9423
:10387000F61B0E94E81B38F00E94EF1B20F09523F6
:1038800011F00C94DF1B0C94E51B11240C942A1CE2
:103890000E94071C70F3959FC1F3950F50E0551FD0
:1038A000629FF001729FBB27F00DB11D639FAA2795
:1038B000F00DB11DAA1F649F6627B00DA11D661FE4
:1038C000829F2227B00DA11D621F739FB00DA11D05
:1038D000621F839FA00D611D221F749F3327A00DBF
:1038E000611D231F849F600D211D822F762F6A2F5B
:1038F00011249F5750409AF0F1F088234AF0EE0FC0
:10390000FF1FBB1F661F771F881F91505040A9F7EC
:103910009E3F510580F00C94DF1B0C942A1C5F3FE6
:10392000E4F3983ED4F3869577956795B795F79528
:10393000E7959F5FC1F7FE2B880F911D96958795A0
:1039400097F9089519F416F40C94E51B0C94ED1CEA
:103950000E940F1CB8F39923C9F3B6F39F57550B78
:1039600087FF0E94FB1C0024A0E640EA90018058DB
:103970005695979528F4805C660F771F881F20F076
:1039800026173707480730F4621B730B840B202976
:1039900031294A2BA69517940794202531254A27CB
:1039A00058F7660F771F881F20F02617370748073C
:1039B00030F4620B730B840B200D311D411DA0955B
:1039C00081F7B901842F9158880F969587950895AE
:1039D0000E94BB1B880B990B08959F3F31F09150BB
:1039E00020F4879577956795B795880F911D9695E3
:1039F000879597F9089591505040660F771F881F5B
:103A0000D2F70895A1E21A2EAA1BBB1BFD010DC01F
:103A1000AA1FBB1FEE1FFF1FA217B307E407F5077E
:103A200020F0A21BB30BE40BF50B661F771F881F5A
:103A3000991F1A9469F760957095809590959B01F0
:103A4000AC01BD01CF010895052E97FB1EF4009433
:103A50000E943B1D57FD07D00E94021D07FC03D0AA
:103A60004EF40C943B1D50954095309521953F4F59
:103A70004F4F5F4F089590958095709561957F4F5A
:103A80008F4F9F4F0895EE0FFF1F0590F491E02D8B
:063A90000994F894FFCF39
:103A9600000000033F3F1FFFFFFFFF00000000FF85
:103AA600FFFFFFFFFFFFFFFFFFFFFFFFFFFFFFFF20
:103AB600FFFFFFFFFFFFFFFFFFFFFFFFFFFF6000AE
:103AC60001000020010000000000000000000000CE
:103AD60000000000000000000000000000000000E0
:103AE6000000009A99993F9A99993F5258055805AE
:103AF600020160000100002001000000000000003B
:103B060000000000000000000000000000000000AF
:103B1600000000000000009A99993F9A99993F5237
:103B2600000000007D03DD020A03CA033B031903FC
:103B36002D03000000006208570873082D0850087E
:103B46003D082E08000000008D055905EE062C07DD
:103B5600D806A606850651063006DA05AB050D0A17
:103B660000494E542070756C6C6564206C6F77004C
:103B7600494E5420486967682077697468206578DB
:103B86007465726E616C2070756C6C7570006E6118
:103B96006E00696E66006F7666002B0070776D5654
:103BA600616C75653A20003F0049324320696E20FA
:103BB6006A756D706572207374617465004932436D
:103BC60020696E20736F6674776172652073746105
:103BD6007465002300260051776969632053746574
:103BE6007000416464726573733A203078005265E0
:103BF600676973746572206D61703A004669726D0B
:103C0600776172652076657273696F6E3A203078D7
:103C1600003000496E7465727275707420436F6E61
:103C26006669673A0020286973526561636865644E
:103C3600456E61626C652900202869734C696D695F
:103C4600746564456E61626C6529004D6F746F72B0
:103C5600205374617475733A002028697352756E27
:103C66006E696E672900202853746F707065642929
:103C76000020286973416363656C65726174696EBF
:103C860067290020286973446563656C65726174F1
:103C9600696E6729002028697352656163686564E7
:103CA6002900202869734C696D69746564290020B0
:103CB6002869734553746F7070656429004D6F747D
:103CC6006F7220436F6E6669673A00202846756CEE
:103CD6006C00202848616C6600202851756172745A
:103CE6006572002028456967687468002028536952
:103CF600787465656E7468005374657029002028B1
:103D060064697361626C654D6F746F724F6E455373
:103D1600746F702900202864697361626C654D6F49
:103D2600746F724F6E506F736974696F6E5265610E
:103D3600636865642900202873746F704F6E4C6940
:103D46006D6974537769746368507265737329007B
:103D56004D6F746F72204D6F64653A00202872753E
:103D66006E546F506F732900202872756E546F5011
:103D76006F7357697468416363656C290020287204
:103D8600756E436F6E74696E756F757329002028A2
:103D96006861726453746F702900202864697361C6
:103DA600626C654D6F746F72290043757272656E31
:103DB6007420706F736974696F6E3A20004469737A
:103DC60074616E636520746F20676F3A20004D6FD3
:103DD60076653A2000556E6C6F636B206D6F766565
:103DE600204E564D3A203078004D6F766520746F20
:103DF6003A20004D61782053706565643A20004191
:103E06006363656C65726174696F6E3A2000556E06
:103E16006C6F636B207370656564204E564D3A2057
:103E2600307800486F6C6420766F6C746167653A11
:103E36002000560052756E20766F6C746167653A85
:103E4600200049324320616464726573733A2030FE
:103E56007800504F52206D6F76653A2000504F52D1
:103E66002073706565643A2000454550524F4D20D9
:103E760065726173656400556E6B6E6F776E3A207E
:103E8600004C696D69742072656C656173656421A7
:103E96000069735265616368656420696E74657252
:103EA60072757074210069734C696D69746564205C
:103EB600696E74657272757074210052756E6E69E2
:103EC6006E6720766F6C7461676500486F6C646915
:0C3ED6006E6720766F6C746167650000F9
:107E0000112484B714BE81FFF0D085E080938100F7
:107E100082E08093C00088E18093C10086E0809377
:107E2000C20080E18093C4008EE0C9D0259A86E02C
:107E300020E33CEF91E0309385002093840096BBD3
:107E4000B09BFECF1D9AA8958150A9F7CC24DD24C4
:107E500088248394B5E0AB2EA1E19A2EF3E0BF2EE7
:107E6000A2D0813461F49FD0082FAFD0023811F036
:107E7000013811F484E001C083E08DD089C08234E0
:107E800011F484E103C0853419F485E0A6D080C0E4
:107E9000853579F488D0E82EFF2485D0082F10E0AE
:107EA000102F00270E291F29000F111F8ED06801E7
:107EB0006FC0863521F484E090D080E0DECF843638
:107EC00009F040C070D06FD0082F6DD080E0C81688
:107ED00080E7D80618F4F601B7BEE895C0E0D1E017
:107EE00062D089930C17E1F7F0E0CF16F0E7DF06D8
:107EF00018F0F601B7BEE89568D007B600FCFDCFD4
:107F0000A601A0E0B1E02C9130E011968C91119780
:107F100090E0982F8827822B932B1296FA010C0160
:107F200087BEE89511244E5F5F4FF1E0A038BF0790
:107F300051F7F601A7BEE89507B600FCFDCF97BE46
:107F4000E89526C08437B1F42ED02DD0F82E2BD052
:107F50003CD0F601EF2C8F010F5F1F4F84911BD097
:107F6000EA94F801C1F70894C11CD11CFA94CF0C13
:107F7000D11C0EC0853739F428D08EE10CD085E9AC
:107F80000AD08FE07ACF813511F488E018D01DD067
:107F900080E101D065CF982F8091C00085FFFCCF94
:107FA0009093C60008958091C00087FFFCCF809118
:107FB000C00084FD01C0A8958091C6000895E0E648
:107FC000F0E098E1908380830895EDDF803219F02E
:107FD00088E0F5DFFFCF84E1DECF1F93182FE3DFCA
:107FE0001150E9F7F2DF1F91089580E0E8DFEE27F6
:047FF000FF270994CA
:027FFE00040479
:0400000300007E007B
:00000001FF
