:020000040000FA
:100000000C9462000C94FD130C94D6130C948A008B
:100010000C948A000C948A000C948A000C948A0038
:100020000C948A000C948A000C948A000C948A0028
:100030000C948A000C948A000C948A000C948A0018
:100040000C948C130C948A000C945A130C94341353
:100050000C948A000C948A000C948A000C948A00F8
:100060000C9424140C948A00000000002400270043
:100070002A0000000000250028002B0000000000DE
:1000800023002600290004040404040404040202DA
:100090000202020203030303030301020408102007
:1000A0004080010204081020010204081020000012
:1000B0000008000201000003040700000000000027
:1000C0000000431511241FBECFEFD8E0DEBFCDBF27
:1000D00015E0A0E0B1E0ECE4FBE302C005900D9276
:1000E000AC34B107D9F726E0ACE4B5E001C01D920D
:1000F000A73FB207E1F710E0C2E6D0E004C02197C5
:10010000FE010E949E1DC136D107C9F70E94D81575
:100110000C94A41D0C9400004F925F926F927F92FA
:100120008F929F92AF92BF92CF92DF92EF92FF9207
:100130000F931F93CF93DF93C090C306D090C40654
:10014000E090C506F090C6068091BF069091C0066B
:10015000A091C106B091C206C81AD90AEA0AFB0AE0
:100160006091C7067091C8068091C9069091CA0631
:100170009B01AC010E94901C4B015C016091CF0679
:100180007091D0068091D1069091D2069B01AC016E
:100190000E94C01A9B01AC01C501B4010E94311B31
:1001A0000E94A31BC114D104E104F10409F0D3C0DF
:1001B00062307105810591050CF0F2C01092D706EE
:1001C0001092D8061092D9061092DA061092C7063D
:1001D0001092C8061092C9061092CA061092E7063D
:1001E0001092E8061092E9061092EA06DF91CF918C
:1001F0001F910F91FF90EF90DF90CF90BF90AF9045
:100200009F908F907F906F905F904F900895101601
:10021000110612061306DCF46C157D058E059F058C
:1002200024F42091B5062111BBC09B01AC018827A5
:100230009927DC01821B930BA40BB50B8093E70677
:100240009093E806A093E906B093EA06A9C00115C9
:1002500011052105310509F4A3C06C157D058E0536
:100260009F050CF09DC08091B506882309F498C0C5
:1002700030952095109501951F4F2F4F3F4F0093BC
:10028000E7061093E8062093E9063093EA0688C053
:10029000011511052105310509F482C0882499242E
:1002A00054018C189D08AE08BF08681579058A05A9
:1002B0009B050CF075C08091B506811171C0D8CF37
:1002C000C090EF06D090F006E090F106F090F206B4
:1002D000A7019601C701B6010E94C01A2B013C017B
:1002E000C501B4010E94DB1B20E030E040E850E48F
:1002F0000E94901C20E030E040E85FE30E94C01ABA
:100300009B01AC01C301B2010E94311B9B01AC01F6
:10031000C701B6010E94BF1AD62FC72F6C01E0900B
:10032000F306F090F4060091F5061091F606970199
:10033000A8010E948B1C18161CF4ED2EFC2E8601C1
:10034000C701D8018093EF069093F006A093F106C1
:10035000B093F2064CC00091E7061091E806209198
:10036000E9063091EA061C141D041E041F040CF457
:100370004ECF10161106120613060CF089CF002777
:10038000112798010C191D092E093F0960177107E3
:10039000820793070CF049CF2091B506211145CF74
:1003A0008090E7069090E806A090E906B090EA06F3
:1003B00081149104A104B10409F082CF8091EB066D
:1003C0009091EC06A091ED06B091EE068093EF06B9
:1003D0009093F006A093F106B093F20681E01C140E
:1003E0001D041E041F040CF080E08093B5063FEF4F
:1003F000831A930AA30AB30A8092E7069092E8064A
:10040000A092E906B092EA06C090EF06D090F006FE
:10041000E090F106F090F206C701B6010E94AA1B17
:100420006093D7067093D8068093D9069093DA0626
:10043000A701960160E074E284E799E40E94311B11
:100440006093C7067093C8068093C9069093CA0646
:100450002091B5062111CACE90586093C7067093BB
:10046000C8068093C9069093CA06C0CE0F931F9307
:100470000091BF061091C0062091C1063091C206BE
:10048000DC01CB01800F911FA21FB31F0091C30697
:100490001091C4062091C5063091C60680179107B9
:1004A000A207B30761F08093C3069093C406A0939C
:1004B000C506B093C6061F910F910C948C001F9136
:1004C0000F9108958F929F92AF92BF92CF92DF9239
:1004D000EF92FF920F931F93CF93DF938B01D82F4F
:1004E000C92F8090CB069090CC06A090CD06B090FE
:1004F000CE0675016401F7FAF094F7F8F0949B01C9
:10050000482F592FC701B6010E948B1C181674F092
:1005100098014D2F5C2FC501B4010E942C1B750161
:10052000640187FD03C06801ED2EFC2E20E030E061
:10053000A901C701B6010E942C1B81111DC0109298
:10054000D7061092D8061092D9061092DA06C092F9
:10055000C706D092C806E092C906F092CA06DF919B
:10056000CF911F910F91FF90EF90DF90CF90BF90B0
:10057000AF909F908F900895A701960160E074E27C
:1005800084E799E40E94311B9F770E94AA1B609325
:10059000D7067093D8068093D9069093DA06C1E007
:1005A00020E030E0A901C701B6010E948B1C18169B
:1005B0000CF0C0E0C093B506CACFAF92BF92CF9205
:1005C000DF92EF92FF920F931F93CF93DF936C0113
:1005D0007B018B01040F151FEB015E01AE18BF08F4
:1005E000C017D10759F06991D601ED91FC910190A6
:1005F000F081E02DC6010995892B79F7C501DF91BE
:10060000CF911F910F91FF90EF90DF90CF90BF900F
:10061000AF900895FC01538D448D252F30E0842F39
:1006200090E0821B930B541710F0CF96089501971A
:100630000895FC01918D828D981761F0A28DAE0F07
:10064000BF2FB11D5D968C91928D9F5F9F73928F8E
:1006500090E008958FEF9FEF0895FC01918D828DBA
:10066000981731F0828DE80FF11D858D90E0089587
:100670008FEF9FEF0895FC01918D228D892F90E0DF
:10068000805C9F4F821B91098F73992708958AE0A0
:1006900096E00E943B0321E0892B09F420E0822FA1
:1006A000089580E090E0892B29F00E944703811192
:1006B0000C9400000895FC01A48DA80FB92FB11D62
:1006C000A35ABF4F2C91848D90E001968F73992788
:1006D000848FA689B7892C93A089B1898C91837066
:1006E00080648C93938D848D981306C00288F3895F
:1006F000E02D80818F7D80830895EF92FF920F938C
:100700001F93CF93DF93EC0181E0888F9B8D8C8DBD
:1007100098131AC0E889F989808185FF15C09FB7B1
:10072000F894EE89FF896083E889F9898081837074
:10073000806480839FBF81E090E0DF91CF911F9123
:100740000F91FF90EF900895F62E0B8D10E00F5F44
:100750001F4F0F731127E02E8C8D8E110CC00FB61A
:1007600007FCFACFE889F989808185FFF5CFCE01B2
:100770000E945B03F1CFEB8DEC0FFD2FF11DE35ACF
:10078000FF4FF0829FB7F8940B8FEA89FB89808135
:100790008062CFCFCF93DF93EC01888D8823B9F0AF
:1007A000AA89BB89E889F9898C9185FD03C080817C
:1007B00086FD0DC00FB607FCF7CF8C9185FFF2CFF9
:1007C000808185FFEDCFCE010E945B03E9CFDF91F1
:1007D000CF910895833081F028F4813099F08230F0
:1007E000A9F008958730A9F08830C9F08430B1F4B9
:1007F000809180008F7D03C0809180008F778093EF
:100800008000089584B58F7784BD089584B58F7D69
:10081000FBCF8091B0008F778093B00008958091D6
:10082000B0008F7DF9CFCF93DF93282F30E0F9010F
:10083000E255FF4F8491F901E656FF4FD491F9013B
:10084000EA57FF4FC491CC23A1F081110E94EA0323
:10085000EC2FF0E0EE0FFF1FE458FF4FA591B4918D
:10086000EC91ED2381E090E009F480E0DF91CF91FD
:10087000089580E090E0FACF1F93CF93DF93282F65
:1008800030E0F901E255FF4F8491F901E656FF4F40
:10089000D491F901EA57FF4FC491CC23A9F0162F48
:1008A00081110E94EA03EC2FF0E0EE0FFF1FEE58DB
:1008B000FF4FA591B4918FB7F894EC91111108C036
:1008C000D095DE23DC938FBFDF91CF911F910895E8
:1008D000DE2BF8CFCF93DF9390E0FC01E656FF4F7D
:1008E00024918A579F4FFC0184918823C9F090E09E
:1008F000880F991FFC01E859FF4FA591B491FC01A5
:10090000EE58FF4FC591D49161110DC09FB7F89477
:100910008C91209582238C938881282328839FBFE4
:10092000DF91CF910895623051F49FB7F8943C91D4
:10093000822F809583238C93E8812E2BEFCF8FB766
:10094000F894EC912E2B2C938FBFEACFCF93DF93AB
:10095000EC0161E085E00E946A04209731F460E0D8
:1009600085E0DF91CF910C943C04CF3FD10511F489
:1009700061E0F6CFE3EBF0E0E491E33029F140F4FD
:10098000E130B1F0E230D9F0C038D1058CF7E7CFD3
:10099000E73021F1E83051F1E430B1F78091800087
:1009A000806280938000D0938B00C0938A0004C043
:1009B00084B5806884BDC7BDDF91CF91089584B5AB
:1009C000806284BDC8BDF8CF80918000806880932C
:1009D0008000D0938900C0938800EECF8091B00052
:1009E00080688093B000C093B300E6CF8091B000E0
:1009F00080628093B000C093B400DECF3FB7F8941C
:100A00008091F9059091FA05A091FB05B091FC0544
:100A100026B5A89B05C02F3F19F00196A11DB11D59
:100A20003FBFBA2FA92F982F8827BC01CD01620F95
:100A3000711D811D911D42E0660F771F881F991F50
:100A40004A95D1F708958F929F92AF92BF92CF921D
:100A5000DF92EF92FF920E94FE044B015C0184E161
:100A6000C82ED12CE12CF12C0E94FE0468197909C2
:100A70008A099B09683E734081059105A8F321E02E
:100A8000C21AD108E108F10888EE880E83E0981EAA
:100A9000A11CB11CC114D104E104F10429F7FF9099
:100AA000EF90DF90CF90BF90AF909F908F90089580
:100AB0000895CF93DF93FC012381222359F1EC01A8
:100AC00061E084810E946A0461E08D810E946A0471
:100AD0008B81843011F08830B1F461E08E810E9406
:100AE0006A0461E08F810E946A048FA58F3F91F0B4
:100AF00061E00E946A046EA581E068278FA5DF91FE
:100B0000CF910C943C04833011F0863071F761E092
:100B10008E81E9CFDF91CF910895CF93DF93FC01D0
:100B200023812223A9F0EC010190F081E02D0480C3
:100B3000F581E02D60E009958FA58F3F49F061E0D8
:100B40000E946A046EA58FA5DF91CF910C943C049E
:100B5000DF91CF910895DC01ED91FC9124813581E5
:100B60004770552766277727415051096109710958
:100B7000473051056105710560F4FA01EE53FA4FF3
:100B80000C949E1DCC05CE05D005D205D405D60506
:100B9000D80561E0F901099465E0FCCF64E0FACF83
:100BA00066E0F8CF62E0F6CF6AE0F4CF68E0F2CF1B
:100BB00069E0F0CFCF93DF93EC01CB01BA0126E0DF
:100BC00030E040E050E00E947F1D623071058105F9
:100BD000910589F16CF46115710581059105D1F0DC
:100BE0006130710581059105F9F0DF91CF9108958C
:100BF000643071058105910561F124F1653071055D
:100C00008105910591F7E881F9810480F581E02D56
:100C100066E006C0E881F9810480F581E02D64E09A
:100C2000CE01DF91CF910994E881F9810480F581AB
:100C3000E02D65E0F5CFE881F9810480F581E02DB4
:100C400061E0EECFE881F9810480F581E02D63E079
:100C5000E7CFE881F9810480F581E02D62E0E0CF03
:100C6000DC01ED91FC910480F581E02D4370552766
:100C700066277727423051056105710571F04330D1
:100C800051056105710559F0413051056105710546
:100C900011F065E0099466E0FDCF6AE0FBCF69E002
:100CA000F9CFCF93DF93EC01CB01BA0123E030E021
:100CB00040E050E00E947F1D613071058105910583
:100CC00099F06230710581059105A9F0672B682BB9
:100CD000692BC1F4E881F9810480F581E02D64E09D
:100CE000CE01DF91CF910994E881F9810480F581EB
:100CF000E02D61E0F5CFE881F9810480F581E02DF8
:100D000062E0EECFDF91CF910895DC01ED91FC918F
:100D10000480F581E02D4370552766277727423000
:100D200051056105710571F043305105610571058B
:100D300059F0413051056105710511F062E00994E7
:100D400063E0FDCF61E0FBCF60E0F9CFCF93DF93AD
:100D5000EC01E881F9810480F581E02D8A8160E071
:100D6000811162E0CE010995E881F9810480F58165
:100D7000E02D8A8161E0811163E0CE0109958CA5A7
:100D80009DA58230910538F0880F991F880F991F13
:100D900005970197F1F7E881F9810480F581E02D4D
:100DA0008A8160E0811162E0CE01DF91CF910994E8
:100DB000CF93DF93EC0120E030E0A9016C897D89BD
:100DC0008E899F890E948B1C18162CF4E8A9F9A91A
:100DD000DF91CF910994EAA9FBA9FACFCF92DF92D4
:100DE000EF92FF920F931F93CF93DF93DC01139643
:100DF000CC91C43039F0C83059F1C33019F0C63045
:100E000049F1C2E08C010C5F1F4FF12CE12CC62E82
:100E1000D12CD1E0F8016481C6010E2C02C0959559
:100E200087950A94E2F780FD6D270F5F1F4F808141
:100E30000E943C04BFEFEB1AFB0AEC1658F3DF915B
:100E4000CF911F910F91FF90EF90DF90CF90089579
:100E5000C4E0D8CFC3E0D6CFDC011396EC91139752
:100E6000E93008F038C0F0E0E85CF84F0C949E1DC3
:100E7000410747074D07530759076B075F076B0784
:100E80006507ED91FC910084F185E02D0994ED91C9
:100E9000FC910284F385E02DF9CFED91FC9104845F
:100EA000F585E02DF3CFED91FC910684F785E02DDB
:100EB000EDCFED91FC910088F189E02DE7CFED9128
:100EC000FC910288F389E02DE1CFED91FC9104883B
:100ED000F589E02DDBCF0895CF92DF92EF92FF925C
:100EE0000E94FE046B017C018091DB069091DC0680
:100EF000A091DD06B091DE06B701A601481B590B93
:100F00006A0B7B0B8091D7069091D806A091D906E9
:100F1000B091DA06481759076A077B07A8F1809154
:100F2000BF069091C006A091C106B091C206209163
:100F3000B506222329F10196A11DB11D8093BF069C
:100F40009093C006A093C106B093C2064091BF061D
:100F50005091C0066091C1067091C20683EB96E085
:100F60000E942C07C092DB06D092DC06E092DD06E0
:100F7000F092DE0681E0FF90EF90DF90CF90089531
:100F80000197A109B109DACF80E0F5CF2091A8053A
:100F9000260F3327331F21323105ECF42091CE0583
:100FA000FC0190E080E0243069F082E00895A09197
:100FB000A8052191AC014A575A4FA40FB52FB11D76
:100FC0002C930196861798F38091A805680F60937B
:100FD000A80580E0089581E00895ECEBF0E08081C1
:100FE0008A7B808360E082E10E943C0460E083E1D0
:100FF0000C943C041092CE0581E08093D0051092B1
:10100000CF0561E082E10E943C0461E083E10E943F
:101010003C04E9EBF0E080818E7F808380818D7FCE
:10102000808388E48093B80085E48093BC000895B1
:10103000E0917E05F0917F05309729F010927D05B3
:1010400010927C0509940895CF93DF93AC01E09151
:101050007A05F0917B053097F1F0909179058091B8
:1010600078059817C0F090E0292F30E02617370751
:1010700054F4D901A85ABA4F240F351FE901288129
:101080002C939F5FF1CF1092790560937805CB0187
:10109000DF91CF910994DF91CF9108950895E09168
:1010A000790580917805E81730F4F0E0E85AFA4FB6
:1010B000808190E008958FEF9FEF089590917905DA
:1010C000809178052FEF3FEF981748F4E92FF0E073
:1010D000E85AFA4F208130E09F5F90937905C9016B
:1010E00008958091780590917905891B990B089551
:1010F000CF93DF93CB01EA01642F0E94C607CE0194
:10110000DF91CF910895CF93DF931F92CDB7DEB7D4
:10111000698361E0CE0101960E94C60781E090E0FC
:101120000F90DF91CF91089590E080E008958F9225
:101130009F92AF92BF92CF92DF92EF92FF92409137
:10114000C3065091C4066091C5067091C606809191
:10115000BF069091C006A091C106B091C2066A0177
:101160007B01C81AD90AEA0AFB0AC0926D01D09223
:101170006E01E0926F01F09270018093690190938B
:101180006A01A0936B01B0936C01C090C706D09028
:10119000C806E090C906F090CA06481759076A07C2
:1011A0007B0709F4A2C08090540590905505A0904B
:1011B0005605B09057058091660181608093660165
:1011C0008091680181FF3EC0A7019601C501B4016D
:1011D0000E942C1B87FF16C080916D0190916E01BB
:1011E000A0916F01B0917001181619061A061B061E
:1011F000FCF48091660182608093660180916601B3
:101200008B7F1EC0A7019601C501B4010E948B1CF3
:1012100018160CF049C080916D0190916E01A0915B
:101220006F01B0917001181619061A061B060CF70B
:10123000809166018D7F8093660180916601846054
:1012400080936601A7019601609154057091550540
:1012500080915605909157050E942C1B8823D9F048
:10126000C0925405D0925505E0925605F09257056C
:101270002FB7F8948091F5059091F605A091F705A8
:10128000B091F8052FBF8093500590935105A0931E
:101290005205B0935305FF90EF90DF90CF90BF9031
:1012A000AF909F908F9008952FB7F8948091F50597
:1012B0009091F605A091F705B091F8052FBF4091E8
:1012C0005005509151056091520570915305841B52
:1012D000950BA60BB70B8B3F9105A105B10508F443
:1012E000B1CF809166018D7F87CF809166018E7F1F
:1012F00080936601F6CF0E94970880914E05609119
:101300004E054EE2481B413208F040E250E070E0EA
:101310006E597E4F87EA96E00C94780808954F92B4
:101320005F926F927F928F929F92AF92BF92CF9275
:10133000DF92EF92FF926B017C0120E030E0A90187
:101340000E942C1B87FF04C0F7FAF094F7F8F09482
:101350008090CF069090D006A090D106B090D20693
:10136000A7019601C501B4010E942C1B882309F432
:1013700056C06091E7067091E8068091E906909169
:10138000EA060E94DB1B2B013C01A7019601C50167
:10139000B4010E94311B9B01AC01C301B2010E9448
:1013A000901C0E94A31B6093E7067093E80680934D
:1013B000E9069093EA06A701960160E070E080E0FC
:1013C00090E40E94311B0E94031D26E53EE04DE2A1
:1013D0005FE30E94901C20E034E244E759E40E945D
:1013E000901C6093EB067093EC068093ED0690934F
:1013F000EE06C092CF06D092D006E092D106F092CF
:10140000D206FF90EF90DF90CF90BF90AF909F906B
:101410008F907F906F905F904F900C948C00FF9016
:10142000EF90DF90CF90BF90AF909F908F907F9084
:101430006F905F904F900895FC0101900020E9F7B4
:101440003197AF01481B590BBC018AE096E00C9420
:10145000DD028EEC91E00C941C0A8F929F92AF9269
:10146000BF920F931F93CF93DF93CDB7DEB7A197B2
:101470000FB6F894DEBF0FBECDBF19A2423008F4FC
:101480004AE08E010F5D1F4F842E912CB12CA12CB0
:10149000A50194010E945D1DE62FB901CA01EA3041
:1014A000F4F4E05DD801EE938D01232B242B252B42
:1014B00079F790E080E0109719F0CD010E941C0AA6
:1014C000A1960FB6F894DEBF0FBECDBFDF91CF91CE
:1014D0001F910F91BF90AF909F908F900895E95CFE
:1014E000E1CFCF92DF92EF92FF92CF93DF936B0128
:1014F0007C016DE28AE096E00E947D03EC016627A4
:101500007727CB016C197D098E099F094AE00E945B
:101510002D0A8C0F9D1FDF91CF91FF90EF90DF90F0
:10152000CF9008950C941C0ACF93DF930E941C0A5D
:10153000EC010E94290A8C0F9D1FDF91CF91089525
:1015400061E08FE00E946A0460E08FE00E943C044A
:1015500081E08093070681ED91E00C94940A60E0AD
:101560008FE00E943C0460E08FE00E946A0480EEFD
:1015700091E00E94940A109207060895CF93DF939A
:1015800097FF0AC00E94710AEC010E94290A8C0F81
:101590009D1FDF91CF9108954AE00E942D0AF4CF5C
:1015A000CF93DF93682F70E090E080E040E10E94ED
:1015B0002D0AEC010E94290A8C0F9D1FDF91CF910B
:1015C00008954F925F926F927F928F929F92AF9207
:1015D000BF92CF92DF92EF92FF920F931F93CF9320
:1015E0006B017C01742EAC019B010E94431D88237A
:1015F00099F08EEF91E0CF911F910F91FF90EF90B6
:10160000DF90CF90BF90AF909F908F907F906F9022
:101610005F904F900C941C0A46015701E894B7F86C
:101620002FEF3FEF4FE75FE7C501B4010E94431D75
:1016300081110DC02FEF3FEF4FE75FE7C501B40108
:101640000E942C1B18161CF482E092E0D4CF2FEFDE
:101650003FEF4FE75FE4C701B6010E948B1C1816ED
:101660001CF486E092E0C7CF2FEF3FEF4FE75FEC2F
:10167000C701B6010E942C1B87FDF3CF20E030E0AC
:10168000A901C701B6010E942C1B10E000E087FFF2
:101690000AC06DE28AE096E00E947D038C01F7FAB1
:1016A000F094F7F8F094C0E060E070E080E09FE331
:1016B0007C1641F020E030E040E251E40E94311B12
:1016C000CF5FF6CFA70196010E94C01A2B013C0103
:1016D0000E94AA1B4B015C014AE00E942D0A7C017A
:1016E000E00EF11ECC23C1F1C501B4010E94D91B4B
:1016F0009B01AC01C301B2010E94BF1A4B015C0106
:101700006EE28AE096E00E947D03E80EF91EC15069
:1017100018F120E030E040E251E4C501B4010E943C
:10172000901C2B013C010E94AA1B4B01B12CA12C47
:101730004AE0C501B4010E942D0AE80EF91EC50158
:10174000B4010E94D91B9B01AC01C301B2010E94EC
:10175000BF1A4B015C01DBCFC701CF911F910F91E5
:10176000FF90EF90DF90CF90BF90AF909F908F90C1
:101770007F906F905F904F900895CF93DF9342E0FA
:101780000E94E10AEC010E94290A8C0F9D1FDF9143
:10179000CF910895CF92DF92EF92FF9280916801EE
:1017A00088608093680120E030E0A9016091C7065D
:1017B0007091C8068091C9069091CA060E942C1BA0
:1017C000882329F060E070E0CB010E946202109251
:1017D000820110928301109284011092850110926F
:1017E0004E0110924F01109250011092510120E0D1
:1017F00030E0A9016091CB067091CC068091CD06B6
:101800009091CE060E942C1B882309F452C010929E
:10181000CB061092CC061092CD061092CE0620E098
:1018200030E0A90160E074E284E799E40E94311B92
:101830006093F3067093F4068093F5069093F60692
:101840008091E7069091E806A091E906B091EA063A
:10185000181619061A061B0664F56091C7067091E2
:10186000C8068091C9069091CA069B01AC010E94EE
:10187000901C6B017C016091CF067091D006809125
:10188000D1069091D2069B01AC010E94C01A9B0127
:10189000AC01C701B6010E94311B0E94A31B6093DB
:1018A000E7067093E8068093E9069093EA060E94A3
:1018B0008C0010927A0110927B0110927C011092A0
:1018C0007D0110924601109247011092480110923A
:1018D000490110927E0110927F01109280011092B6
:1018E000810110924A0110924B0110924C0110920A
:1018F0004D0160E070E0CB010E9436021092710150
:1019000010927201109273011092740110923D01B5
:1019100010923E0110923F01109240018091C30647
:101920009091C406A091C506B091C606892B8A2B5A
:101930008B2B51F01092C3061092C4061092C5066C
:101940001092C6060E948C001092760110927701C8
:101950001092780110927901109242011092430185
:1019600010924401109245011092BF061092C006D9
:101970001092C1061092C2061092C3061092C406BD
:101980001092C5061092C6061092E7061092E8065D
:101990001092E9061092EA061092D7061092D80625
:1019A0001092D9061092DA061092C7061092C80655
:1019B0001092C9061092CA061092690110926A012B
:1019C00010926B0110926C01109235011092360149
:1019D0001092370110923801FF90EF90DF90CF9076
:1019E00008950E94230582E00E941304892BA1F42C
:1019F0000E94CA0B8091660180628093660180918B
:101A0000670183FF09C083EB96E00E948D058091FA
:101A1000680180618093680108950E94230583E036
:101A20000E941304892BA9F48AE092E00E94920A92
:101A30008091080681110DC08091660180618093BC
:101A4000660181E0809308068091670185FD0C9412
:101A5000CA0B0895CF92DF92EF92FF926B017C0147
:101A600023E333E343E550E40E948B1C18163CF457
:101A700083E3C82EDC2C83E5E82E80E4F82E20E0FA
:101A800030E04FE753E4C701B6010E94901C23E306
:101A900033E343E550E40E94311B20E030E0A9012C
:101AA0000E94C01A0E94A31B6B018CE092E00E946E
:101AB000920AB601DD0C880B990B97FF0AC00E94B1
:101AC000710A0E94290A8C2DFF90EF90DF90CF9031
:101AD00008954AE00E942D0AF4CFCF92DF92EF9250
:101AE000FF920F931F93CF93DF93EB017B0124E0D1
:101AF000E20EF11C8B016C01C61AD70AC601800FD9
:101B0000911F0E94A91AF80181938F01EE15FF051C
:101B1000A9F7CE01DF91CF911F910F91FF90EF9028
:101B2000DF90CF900895CF93DF9385ED8093BC0035
:101B30008091820590918305A0918405B0918505DF
:101B40000796A11DB11D23E0B695A795979587959A
:101B50002A95D1F72091BC0024FD03C01092CE0538
:101B60002BC040918205509183056091840570914E
:101B70008505452B462B472B69F30097A105B10539
:101B800041F025E32A95F1F700000197A109B10979
:101B9000E1CF8091810591E090938005882361F0E9
:101BA000C091B800D091BA000E94ED070E94FA07D8
:101BB000D093BA00C093B800DF91CF910895FF92FF
:101BC0000F931F93CF93DF93EC01F62E08811981B9
:101BD000C8010E94A91AF81621F06F2DC8010E94B1
:101BE000B11ACE01DF91CF911F910F91FF9008950F
:101BF000EF92FF920F931F93CF93DF9300D0CDB757
:101C0000DEB787E192E00E94920A8EEFE82E85E02F
:101C1000F82E04E610E01A830983F70161917F0131
:101C2000CE0101960E94DF0D0F5F1F4F0D3611058B
:101C300091F70F900F90DF91CF911F910F91FF902F
:101C4000EF900895CF9380910606811157C087E4E5
:101C500080937C0080917A00806480937A008091E8
:101C60007A0086FDFCCF90917800809179008927D9
:101C7000982789270A974CF489E192E00E94940AF8
:101C800081E0809306060E94F80D8091060681117E
:101C900044C080918F01883008F446C080918F0144
:101CA000883708F041C0C0918F010E94ED07109263
:101CB00079051092780510927D0510927C050E949E
:101CC000FA0788E198E09093A7058093A60584E23F
:101CD00098E09093AB058093AA05CC0FC093BA000F
:101CE0008FE892E190937B0580937A058BE799E0EA
:101CF00090937F0580937E05CF9108958130A9F65A
:101D000085E10E941304019709F0BFCF8DE292E0B4
:101D10000E94940A10920606B6CF813031F681E512
:101D200080938F01C1E5C1CFC2E5BFCF8F929F9253
:101D3000AF92BF92CF92DF92EF92FF9290913101DA
:101D4000917080916501817098130AC09091310162
:101D5000969591708091650186958170981719F01C
:101D600081E0809309069091330191708091670121
:101D70008170981316C0909133019695917080915F
:101D800067018695817098130CC09091330192FB86
:101D9000992790F98091670182FB882780F998172D
:101DA00081F181E08093090660916701617089E0AB
:101DB0000E943C04609167016695617088E00E9412
:101DC0003C046091670162FB662760F987E00E942E
:101DD0003C04909167018091330190FB80F98093DE
:101DE0003301909167018091330191FB81F98093D8
:101DF0003301909167018091330192FB82F98093C6
:101E000033019091330193FB992790F980916701F9
:101E100083FB882780F9981316C09091330192951F
:101E20009170809167018295817098130CC0909198
:101E3000330195FB992790F98091670185FB8827ED
:101E400080F9981719F081E0809309069091340188
:101E50009170809168018170981322C09091340133
:101E6000969591708091680186958170981318C03D
:101E70009091340192FB992790F98091680182FB3F
:101E8000882780F998130CC09091340193FB99270F
:101E900090F98091680183FB882780F9981719F1E0
:101EA00081E080930906909168018091340190FB54
:101EB00080F980933401909168018091340191FB05
:101EC00081F980933401909168018091340192FBF3
:101ED00082F980933401909168018091340193FBE1
:101EE00083F980933401909134019295917080919F
:101EF000680182958170981799F081E080930906B6
:101F00008091680184FFEBC283EB96E00E948D050F
:101F1000909168018091340194FB84F9809334019D
:101F200080914F05882309F462C0809169019091E6
:101F30006A01A0916B01B0916C018093BF069093F0
:101F4000C006A093C106B093C2068093C3069093C7
:101F5000C406A093C506B093C6061092E706109279
:101F6000E8061092E9061092EA061092D70610923F
:101F7000D8061092D9061092DA061092C70610926F
:101F8000C8061092C9061092CA0680916901909104
:101F90006A01A0916B01B0916C018093350190931F
:101FA0003601A0933701B093380110924F0580910C
:101FB000690190916A01A0916B01B0916C018093CD
:101FC000760190937701A0937801B0937901809185
:101FD000690190916A01A0916B01B0916C018093AD
:101FE000420190934301A0934401B0934501809135
:101FF000FD05882309F46BC08091710190917201F5
:10200000A0917301B0917401892B8A2B8B2B09F05D
:1020100072C28090C7069090C806A090C906B09082
:10202000CA0620E030E0A901C501B4010E942C1BC2
:10203000882381F1A5019401C501B4010E94901C7F
:102040006B017C016091CF067091D0068091D10622
:102050009091D2069B01AC010E94C01A9B01AC0179
:10206000C701B6010E94311B0E94A31B6B017C01BA
:1020700020E030E0A901C501B4010E948B1C1816B4
:102080000CF032C2C701B6016F5F7F4F8F4F9F4F79
:102090000E94360220E030E0A9016091C7067091ED
:1020A000C8068091C9069091CA060E942C1B8823FD
:1020B00029F060E070E0CB010E94620210926001A2
:1020C00080916601877F809366011092FD05809163
:1020D00075018935A1F48091710190917201A091EF
:1020E0007301B09174018093FE059093FF05A09356
:1020F0000006B09301060E94F80D10927501409100
:1021000046015091470160914801709149018091C9
:102110007A0190917B01A0917C01B0917D014817DB
:1021200059076A077B0709F48AC081E08093090692
:1021300060917A0170917B0180917C0190917D0189
:102140000E948E096B017C0120E030E0A9010E9411
:102150002C1B87FF04C0F7FAF094F7F8F094A7015E
:1021600096016091CB067091CC068091CD0690913E
:10217000CE060E942C1B882309F451C0C092CB06C6
:10218000D092CC06E092CD06F092CE06A701960141
:1021900060E074E284E799E40E94311B6093F306E7
:1021A0007093F4068093F5069093F6068091E70607
:1021B0009091E806A091E906B091EA061816190672
:1021C0001A061B0664F56091C7067091C8068091D7
:1021D000C9069091CA069B01AC010E94901C6B013C
:1021E0007C016091CF067091D0068091D1069091CC
:1021F000D2069B01AC010E94C01A9B01AC01C70131
:10220000B6010E94311B0E94A31B6093E7067093E6
:10221000E8068093E9069093EA060E948C0080917C
:102220007A0190917B01A0917C01B0917D01809316
:10223000460190934701A0934801B0934901409112
:102240004A0150914B0160914C0170914D01809178
:102250007E0190917F01A0918001B091810148178A
:1022600059076A077B0751F181E080930906609165
:102270007E0170917F0180918001909181010E9487
:102280008E096B017C0120E030E0A9010E942C1B2B
:10229000882321F0C701B6010E948F0980917E0139
:1022A00090917F01A0918001B091810180934A01BA
:1022B00090934B01A0934C01B0934D01409142018A
:1022C00050914301609144017091450180917601E4
:1022D00090917701A0917801B09179014817590741
:1022E0006A077B0779F18091760190917701A0913F
:1022F0007801B09179014091C3065091C406609174
:10230000C5067091C60684179507A607B70751F052
:102310008093C3069093C406A093C506B093C606E7
:102320000E948C008091760190917701A0917801B4
:10233000B09179018093420190934301A0934401AD
:10234000B09345018091680180FD04C080916801CF
:1023500082FF3EC08090C7069090C806A090C90634
:10236000B090CA06609182017091830180918401CE
:10237000909185010E948E09A50194010E942C1B59
:10238000882331F1609182017091830180918401F1
:10239000909185010E948E096B017C01A501940139
:1023A0000E942C1B882321F0C701B6010E94620203
:1023B0008091820190918301A0918401B091850167
:1023C00080934E0190934F01A0935001B09351011F
:1023D00080918601843CC1F483E492E00E94920AD9
:1023E0008091820190918301A0918401B091850137
:1023F0008093020690930306A0930406B09305060B
:102400000E94F80D109286014091530150915401A1
:1024100060915501709156018091870190918801DA
:10242000A0918901B0918A01481759076A077B0773
:1024300099F081E08093090680918701909188014D
:10244000A0918901B0918A01809353019093540126
:10245000A0935501B09356014091570150915801F6
:102460006091590170915A0180918B0190918C017A
:10247000A0918D01B0918E01481759076A077B071B
:1024800099F081E08093090680918B0190918C01F5
:10249000A0918D01B0918E018093570190935801C6
:1024A000A0935901B0935A0190915B0180918F01E3
:1024B000981761F181E08093090680918F018093E4
:1024C0005B01109206060E94F80DFF90EF90DF90DE
:1024D000CF90BF90AF909F908F900C94220E83EB83
:1024E00096E00E94590514CDC701B601609570951C
:1024F00080959095CDCD6091710170917201809120
:102500007301909174010E943602D8CDFF90EF9034
:10251000DF90CF90BF90AF909F908F900895DF9203
:10252000EF92FF920F931F93CF93DF938C0187EA73
:1025300096E00E945E0880934E05D12C780181E0E0
:10254000E81AF108CD2DD0E0CE15DF059CF587EA1D
:1025500096E00E945E0820914E052C0F3D2F311D04
:102560002E32310528F5A0914E05E0914E05EC0F75
:10257000FD2FF11DEE59FE4FAC0FBD2FB11DA05028
:10258000BF4F9C91909520819223908390914E050E
:10259000E0914E05EC0FFD2FF11DEE59FE4FC90FD6
:1025A000D11DC050DF4F988198238081892B808373
:1025B000D394C8CF60E080E10E943C040230110552
:1025C000F4F080914E05803150F480914E05800FDB
:1025D000912F911D44971CF081E08093FD0580911F
:1025E0004E05883050F480914E05080F111D0C30B7
:1025F00011051CF081E080934F050E94960E61E06A
:1026000080E1DF91CF911F910F91FF90EF90DF90CC
:102610000C943C04EF92FF920F931F93CF93DF93A0
:1026200000D0CDB7DEB785E492E00E94920A82E640
:10263000E82E81E0F82E10E000E01A830983F7010C
:1026400061917F01CE0101960E94DF0D0F5F1F4F48
:102650000E32110591F70F900F90DF91CF911F91DE
:102660000F91FF90EF9008951F920F920FB60F9267
:1026700011242F933F934F935F936F937F938F9387
:102680009F93AF93BF93EF93FF938AE096E00E94EE
:102690005B03FF91EF91BF91AF919F918F917F91DC
:1026A0006F915F914F913F912F910F900FBE0F90BF
:1026B0001F9018951F920F920FB60F9211242F930F
:1026C0008F939F93EF93FF93E0911A06F0911B066F
:1026D0008081E0912006F091210682FD1BC090814F
:1026E000809123068F5F8F7320912406821741F01B
:1026F000E0912306F0E0E65FF94F958F8093230683
:10270000FF91EF919F918F912F910F900FBE0F909E
:102710001F9018958081F4CF1F920F920FB60F92E1
:1027200011242F933F938F939F93AF93BF938091E7
:10273000F5059091F605A091F705B091F805309157
:10274000F40523E0230F2D3758F50196A11DB11D87
:102750002093F4058093F5059093F605A093F70573
:10276000B093F8058091F9059091FA05A091FB05C9
:10277000B091FC050196A11DB11D8093F9059093C0
:10278000FA05A093FB05B093FC05BF91AF919F9113
:102790008F913F912F910F900FBE0F901F90189522
:1027A00026E8230F0296A11DB11DD2CF1F920F92D2
:1027B0000FB60F9211242F933F934F935F936F9314
:1027C0007F938F939F93AF93BF93EF93FF93E0918A
:1027D0005E01F0915F010995FF91EF91BF91AF917B
:1027E0009F918F917F916F915F914F913F912F9129
:1027F0000F900FBE0F901F9018951F920F920FB65B
:102800000F9211242F933F934F935F936F937F9376
:102810008F939F93AF93BF93EF93FF93E0915C01EE
:10282000F0915D010995FF91EF91BF91AF919F915B
:102830008F917F916F915F914F913F912F910F9069
:102840000FBE0F901F9018951F920F920FB60F9208
:1028500011242F933F934F935F936F937F938F93A5
:102860009F93AF93BF93EF93FF938091B900887FBD
:10287000803609F44AC0F0F5883209F4A7C018F58B
:10288000803109F49BC0B8F4882309F4F9C088307A
:1028900009F494C0FF91EF91BF91AF919F918F91F7
:1028A0007F916F915F914F913F912F910F900FBE4C
:1028B0000F901F901895883109F488C0803251F725
:1028C0008093CD0514C0803409F49DC040F480335A
:1028D000B9F38833F9F68093CD0585ECB0C0803527
:1028E00009F485C0883509F496C0883499F60E94A9
:1028F000930DD0CF883909F48CC038F5883729F08A
:1029000050F4883611F0803729F683E08093CE05A5
:102910001092CC0557C0883809F47BC0803919F073
:10292000803809F0B7CF8091CC05803208F071C0B3
:10293000E091CC0581E08E0F8093CC058091BB00A7
:10294000F0E0E455FA4F80833DC0803B39F0E0F47D
:10295000803A09F479C0883A09F09CCF84E08093EA
:10296000CE051092A9051092A805E091A605F09158
:10297000A70509958091A80581110FC081E080937A
:10298000A8051092860509C0803C09F4A6CF883CB2
:1029900009F4A3CF883B09F07DCFE091A90581E040
:1029A0008E0F8093A905F0E0EA57FA4F808180935B
:1029B000BB009091A9058091A80529C08091F305DD
:1029C0008093BB0085EC8093BC0064CF9091F205AE
:1029D0008091F105981758F5E091F20581E08E0F8E
:1029E0008093F205F0E0EF52FA4F8081E9CFE09159
:1029F000F20581E08E0F8093F2058091BB00F0E03C
:102A0000EF52FA4F80839091F2058091F10598176B
:102A1000C8F285E8D8CFE091F20581E08E0F80936F
:102A2000F2058091BB00F0E0EF52FA4F8083809175
:102A3000D00581115CCF81E08093CF0584EA80933B
:102A4000BC001092CE0526CF85EC8093BC0010927E
:102A5000CE058091CC05803230F4E091CC05F0E0D9
:102A6000E455FA4F10826091CC0570E0E091AA0520
:102A7000F091AB058CEA95E009951092CC050ACF50
:102A80001092CD0534CFEAE0F6E01382128288EE90
:102A900093E0A0E0B0E084839583A683B78324E924
:102AA00031E03183208325EC30E03587248724EC26
:102AB00030E03787268720EC30E0318B208B21EC0B
:102AC00030E0338B228B22EC30E0358B248B26ECEC
:102AD00030E0378B268B118E128E138E148EE7EA20
:102AE000F6E01382128284839583A683B78386EAF5
:102AF00091E091838083E3EBF6E088EB91E09183B2
:102B0000808381E083831486158616861786108A53
:102B1000118A128A138A148A158A168A178A80E003
:102B200090E0A0E8BFE3808F918FA28FB38F148EC7
:102B3000158E168E178E80A391A3A2A3B3A314A201
:102B400015A216A217A221E030E035A724A72FEF87
:102B500027A710A611A612A613A621E1248326E01A
:102B6000258324E0268325E0278316A614AA15AA28
:102B700016AA17AA10AE11AE12AE13AE14AE15AE51
:102B800016AE17AE8093F3069093F406A093F50665
:102B9000B093F60612821086118612861386CF0134
:102BA0000E94590560E070E080E89FE30C948F0973
:102BB000CF93DF9300D000D0CDB7DEB7789484B543
:102BC000826084BD84B5816084BD85B5826085BD29
:102BD00085B5816085BD80916E00816080936E00B7
:102BE00010928100809181008260809381008091A9
:102BF000810081608093810080918000816080935A
:102C000080008091B10084608093B1008091B00019
:102C100081608093B00080917A00846080937A0014
:102C200080917A00826080937A0080917A0081603E
:102C300080937A0080917A00806880937A00109265
:102C4000C100E0911A06F0911B0682E08083E091BA
:102C50001606F09117061082E0911806F0911906F9
:102C600080E1808310922206E0911E06F0911F06FB
:102C700086E08083E0911C06F0911D0680818061D2
:102C80008083E0911C06F0911D068081886080831E
:102C9000E0911C06F0911D06808180688083E091A0
:102CA0001C06F0911D0680818F7D808387E492E071
:102CB0000E94940A61E089E00E946A0461E088E071
:102CC0000E946A0461E087E00E946A0460E089E093
:102CD0000E943C0460E088E00E943C0460E087E0E1
:102CE0000E943C0462E085E10E946A0462E082E0A6
:102CF0000E946A0462E083E00E946A048AE0809392
:102D0000E20661E00E946A046091E106BB24B3948C
:102D10006B258091E2060E943C041092BB06109243
:102D2000BC06B092E10683EB96E00E9459058FE75E
:102D300090E00E94A6040E94AF0ABE016F5F7F4F21
:102D400090E080E00E946D0D89819A81AB81BC8109
:102D50008F3F9F4FAF4FBF4F11F40E940A13B2E64F
:102D60008B2EB1E09B2EB12CA12CC5010E94A91A7B
:102D7000F40181934F01FFEFAF1ABF0A2EE2A216B2
:102D8000B10499F7109275011092860110927101A9
:102D900010927201109273011092740110928201CC
:102DA00010928301109284011092850110926901A2
:102DB00010926A0110926B0110926C0110926D01D9
:102DC00010926E0110926F0110927001BE016F5F40
:102DD0007F4F84E690E00E946D0D89819A81AB81DE
:102DE000BC818F3F9F4FAF4FBF4F11F40E94F80D32
:102DF000FEEF8F2EF5E09F2EA4E6AA2EB12CC50182
:102E00000E94A91AF40181934F01FFEFAF1ABF0A84
:102E10002DE6A216B10499F78091FE059091FF0569
:102E2000A0910006B09101060097A105B10569F0D7
:102E30008093710190937201A0937301B093740118
:102E400081E08093FD0510926101809102069091CE
:102E50000306A0910406B09105060097A105B105EF
:102E600041F08093820190938301A0938401B093F9
:102E700085010E94960E81EF9CE090935D01809306
:102E80005C01809169008C7F826080936900E89A80
:102E90008DE09DE090935F0180935E0180916900D9
:102EA000837F886080936900E99A0E94220E82E500
:102EB00092E00E94920A80918F010E94D00A70E0F5
:102EC000A72E70E0B72EE2E06E2E772473948AE08E
:102ED00096E00E943B03892B09F4F5C18AE096E055
:102EE0000E941903982E80E79812CFC10E9497087C
:102EF0000E94290A8EE592E00E94940A8CE692E0F4
:102F00000E94920A80916401803120F481E892E06D
:102F10000E94920A6091640170E090E080E040E1DC
:102F20000E942D0A80916301803120F481E892E0B3
:102F30000E94920A809163010E94D00A83E892E085
:102F40000E94920A8091650180FF04C085E992E0A9
:102F50000E94920A8091650181FF04C088EA92E094
:102F60000E94920A0E94290A8BEB92E00E94920A28
:102F70008091660180FF5AC189EC92E00E94920A1A
:102F80008091660181FF04C081EE92E00E94920A66
:102F90008091660182FF04C083EF92E00E94920A52
:102FA0008091660183FF04C085E093E00E94920A4D
:102FB0008091660184FF04C082E193E00E94920A3E
:102FC0008091660185FF04C08FE193E00E94920A20
:102FD0000E94290A8DE293E00E94920A20916701E3
:102FE000809167013091670181FB002700F910E0B3
:102FF000C801880F991F32FBEE24E0F8F12CA701DD
:10300000440F551F440F551F842B952B20FBCC24B8
:10301000C0F8D12C8C299D298230910509F41AC160
:103020000CF007C1009709F40DC1019709F40FC115
:1030300088E693E00E94920A8091670183FF04C0B2
:103040008EE693E00E94920A8091670184FF04C09B
:1030500085E893E00E94920A8091670185FF04C091
:1030600086EA93E00E94920A0E94290A80EC93E08B
:103070000E94920A8091680180FFF2C08CEC93E07C
:103080000E94920A8091680184FF04C08AE094E063
:103090000E94920A0E94290A8AE194E00E94920A00
:1030A0006091690170916A0180916B0190916C014E
:1030B0000E94BE0A8DE294E00E94920A60916D0126
:1030C00070916E0180916F01909170010E94BE0A13
:1030D0008EE394E00E94920A6091710170917201F6
:1030E00080917301909174010E94BE0A85E494E07E
:1030F0000E94920A809175010E94D00A89E594E0AD
:103100000E94920A60917601709177018091780116
:10311000909179010E94BE0A83E694E00E94920A8F
:1031200060917A0170917B0180917C0190917D0189
:103130000E948E090E94BD0B8FE694E00E94920AC5
:1031400060917E0170917F01809180019091810159
:103150000E948E090E94BD0B87E694E00E94920AAD
:103160006091820170918301809184019091850129
:103170000E948E090E94BD0B8EE794E00E94920A85
:10318000809186010E94D00A83E994E00E94920A0D
:1031900060918701709188018091890190918A01E5
:1031A0000E948E0943E00E94E10A82EA94E00E94B4
:1031B000940A84EA94E00E94920A60918B017091D3
:1031C0008C0180918D0190918E010E948E0943E0C7
:1031D0000E94E10A82EA94E00E94940A82EB94E061
:1031E0000E94920A80918F010E94D00A82EC94E0A2
:1031F0000E94920A6091FE057091FF058091000681
:10320000909101060E94BE0A8DEC94E00E94920A01
:103210006091020670910306809104069091050664
:103220004AE00E942D0A0E94290A4DC086ED92E0D4
:10323000A5CE8330910589F0079709F0F9CE8CE58A
:1032400093E002C08BE393E00E94920AF1CE82E405
:1032500093E0FACF89E493E0F7CF83E593E0F4CFEE
:103260008091680181FF03C088ED93E009CF8091D0
:10327000680182FF03C08DEE93E002CF8091680168
:1032800083FF00CF8EEF93E0FBCEE5E69E12DCC01D
:10329000912C812C9A8289826FEFCE0101960E9437
:1032A000DF0DFFEF8F1A9F0A9A82898260E0CE01BC
:1032B00001960E94DF0D28E78216910459F789EDE7
:1032C00094E00E94940A83E00E941304019751F451
:1032D00080910806823031F41092080681EF94E064
:1032E0000E94940A809160018111B8C04091BF068C
:1032F0005091C0066091C1067091C2068091C306CC
:103300009091C406A091C506B091C606481759070A
:103310006A077B07A1F47092600180916601886062
:10332000809366018091670184FF09C083EB96E07A
:103330000E948D0580916801806180936801809171
:103340000806813029F48091660184FF60920806A6
:103350008091070681118EC080916001813051F407
:103360008091650180FF06C081E095E00E94940A8B
:103370000E94A00A80910806813051F48091650175
:1033800081FF06C086E195E00E94940A0E94A00A8F
:103390004091C3065091C4066091C5067091C6065F
:1033A0008091BF069091C006A091C106B091C2065F
:1033B000481759076A077B0709F474C080916101B7
:1033C000811115C08BE295E00E94940A60918B01F7
:1033D00070918C0180918D0190918E010E948E09D7
:1033E0000E942A0D90E00E94A604709261018091D3
:1033F000660185FD15C08091680181FF6EC08091D6
:10340000D7069091D806A091D906B091DA06892BFB
:103410008A2B8B2B29F00E946C0781110E948C0053
:1034200080910906882321F0109209060E940A1350
:10343000A114B10409F44BCD0E944703882309F479
:1034400046CD0E94000043CD87EE94E00E94920A90
:10345000692D8AE096E00E947D03E5CE80916001AF
:10346000813009F06CCF8091660183FD68CF609256
:10347000600165CF80910706813009F089CF809186
:103480006001823021F080916001811181CF8091B3
:103490000806823021F080910806811179CF0E94C0
:1034A000AF0A76CF80916101813009F0A0CF8BE324
:1034B00095E00E94940A6091870170918801809143
:1034C000890190918A010E948E090E942A0D90E044
:1034D0000E94A604109261018ACF8091680182FF48
:1034E00010C08091D7069091D806A091D906B091CE
:1034F000DA06892B8A2B8B2B09F492CF0E946C075A
:103500008FCF8091680180FF21C04091C306509108
:10351000C4066091C5067091C6068091BF06909161
:10352000C006A091C106B091C206481759076A07A4
:103530007B0709F475CF84179507A607B7071CF416
:103540007092B506CECF1092B506CBCF80916801B0
:1035500067CFF999FECF92BD81BDF89A992780B5C2
:103560000895262FF999FECF1FBA92BD81BD20BDC7
:103570000FB6F894FA9AF99A0FBE0196089550582A
:10358000BB27AA270E94D71A0C94511C0E94431CE7
:1035900038F00E944A1C20F039F49F3F19F426F4B9
:1035A0000C94401C0EF4E095E7FB0C943A1CE92FB8
:1035B0000E94621C58F3BA176207730784079507C5
:1035C00020F079F4A6F50C94841C0EF4E0950B2EF3
:1035D000BA2FA02D0B01B90190010C01CA01A00165
:1035E0001124FF27591B99F0593F50F4503E68F1C0
:1035F0001A16F040A22F232F342F4427585FF3CF01
:10360000469537952795A795F0405395C9F77EF4D1
:103610001F16BA0B620B730B840BBAF09150A1F01A
:10362000FF0FBB1F661F771F881FC2F70EC0BA0FA0
:10363000621F731F841F48F4879577956795B79528
:10364000F7959E3F08F0B0CF9395880F08F0992723
:10365000EE0F9795879508950E94161C08F481E057
:1036600008950E94451B0C94511C0E944A1C58F05E
:103670000E94431C40F029F45F3F29F00C943A1C4F
:1036800051110C94851C0C94401C0E94621C68F320
:103690009923B1F3552391F3951B550BBB27AA270B
:1036A00062177307840738F09F5F5F4F220F331F45
:1036B000441FAA1FA9F335D00E2E3AF0E0E832D00D
:1036C00091505040E695001CCAF72BD0FE2F29D010
:1036D000660F771F881FBB1F261737074807AB07E2
:1036E000B0E809F0BB0B802DBF01FF2793585F4F57
:1036F0003AF09E3F510578F00C943A1C0C94851CCE
:103700005F3FE4F3983ED4F3869577956795B79538
:10371000F7959F5FC9F7880F911D9695879597F943
:103720000895E1E0660F771F881FBB1F62177307BC
:103730008407BA0720F0621B730B840BBA0BEE1FD1
:1037400088F7E09508950E94AA1B6894B1110C9423
:10375000851C08950E946A1C88F09F5798F0B92F25
:103760009927B751B0F0E1F0660F771F881F991FB6
:103770001AF0BA95C9F714C0B13091F00E94841CB8
:10378000B1E008950C94841C672F782F8827B85FC8
:1037900039F0B93FCCF3869577956795B395D9F70E
:1037A0003EF490958095709561957F4F8F4F9F4F18
:1037B0000895E89409C097FB3EF490958095709524
:1037C00061957F4F8F4F9F4F9923A9F0F92F96E96D
:1037D000BB279395F695879577956795B795F111E2
:1037E000F8CFFAF4BB0F11F460FF1BC06F5F7F4F7F
:1037F0008F4F9F4F16C0882311F096E911C0772391
:1038000021F09EE8872F762F05C0662371F096E899
:10381000862F70E060E02AF09A95660F771F881F68
:10382000DAF7880F9695879597F90895990F00080C
:10383000550FAA0BE0E8FEEF16161706E807F90782
:10384000C0F012161306E407F50798F0621B730B1D
:10385000840B950B39F40A2661F0232B242B252B9E
:1038600021F408950A2609F4A140A6958FEF811D41
:10387000811D089597F99F6780E870E060E00895E2
:103880009FEF80EC089500240A9416161706180678
:103890000906089500240A94121613061406050654
:1038A0000895092E0394000C11F4882352F0BB0FE5
:1038B00040F4BF2B11F460FF04C06F5F7F4F8F4F48
:1038C0009F4F089557FD9058440F551F59F05F3F83
:1038D00071F04795880F97FB991F61F09F3F79F032
:1038E00087950895121613061406551FF2CF4695B4
:1038F000F1DF08C0161617061806991FF1CF869536
:103900007105610508940895E894BB276627772719
:10391000CB0197F908950E94161C08F48FEF0895C3
:103920000E94A31C0C94511C0E94431C38F00E945E
:103930004A1C20F0952311F00C943A1C0C94401C66
:1039400011240C94851C0E94621C70F3959FC1F396
:10395000950F50E0551F629FF001729FBB27F00D3D
:10396000B11D639FAA27F00DB11DAA1F649F662792
:10397000B00DA11D661F829F2227B00DA11D621FE1
:10398000739FB00DA11D621F839FA00D611D221F9B
:10399000749F3327A00D611D231F849F600D211D7F
:1039A000822F762F6A2F11249F5750409AF0F1F002
:1039B00088234AF0EE0FFF1FBB1F661F771F881F6B
:1039C00091505040A9F79E3F510580F00C943A1C4D
:1039D0000C94851C5F3FE4F3983ED4F3869577956D
:1039E0006795B795F795E7959F5FC1F7FE2B880F11
:1039F000911D9695879597F9089519F416F40C94EE
:103A0000401C0C94481D0E946A1CB8F39923C9F30A
:103A1000B6F39F57550B87FF0E94561D0024A0E662
:103A200040EA900180585695979528F4805C660F7F
:103A3000771F881F20F026173707480730F4621BCE
:103A4000730B840B202931294A2BA69517940794D0
:103A5000202531254A2758F7660F771F881F20F049
:103A600026173707480730F4620B730B840B200DC1
:103A7000311D411DA09581F7B901842F9158880F00
:103A80009695879508950E94161C880B990B0895AA
:103A90009F3F31F0915020F4879577956795B795C2
:103AA000880F911D9695879597F9089591505040EC
:103AB000660F771F881FD2F70895A1E21A2EAA1B5E
:103AC000BB1BFD010DC0AA1FBB1FEE1FFF1FA217CE
:103AD000B307E407F50720F0A21BB30BE40BF50BCB
:103AE000661F771F881F991F1A9469F76095709554
:103AF000809590959B01AC01BD01CF010895052EE5
:103B000097FB1EF400940E94961D57FD07D00E945B
:103B10005D1D07FC03D04EF40C94961D5095409506
:103B2000309521953F4F4F4F5F4F08959095809569
:103B3000709561957F4F8F4F9F4F0895EE0FFF1F38
:103B40000590F491E02D0994F894FFCF0000000354
:103B50003F3F1FFFFFFFFF00000000FFFFFFFFFFD1
:103B6000FFFFFFFFFFFFFFFFFFFFFFFFFFFFFFFF65
:103B7000FFFFFFFFFFFFFFFFFFFF600101000020CD
:103B80000100000000000000000000000000000034
:103B90000000000000000000000000000000009A8B
:103BA00099993F9A99993F52580558050201600129
:103BB00001000020010000000000000000000000E3
:103BC00000000000000000000000000000000000F5
:103BD0000000009A99993F9A99993F52000000007D
:103BE0007D03DD020A03CA033B0319032D03000012
:103BF00000008308780894084E0871085E084F0892
:103C0000000000008D055905EE062C07D806A60613
:103C1000850651063006DA05AB050D0A00494E54FB
:103C20002070756C6C6564206C6F7700494E542071
:103C30004869676820776974682065787465726E72
:103C4000616C2070756C6C7570006E616E00696ED1
:103C500066006F7666002B0070776D56616C756537
:103C60003A20003F0049324320696E206A756D702A
:103C700065722073746174650049324320696E2057
:103C8000736F667477617265207374617465002662
:103C900000230051776969632053746570004164A3
:103CA00064726573733A2030780052656769737483
:103CB0006572206D61703A004669726D7761726558
:103CC0002076657273696F6E3A2030780030004953
:103CD0006E7465727275707420436F6E6669673AB0
:103CE000002028697352656163686564456E61628E
:103CF0006C652900202869734C696D697465644599
:103D00006E61626C6529004D6F746F72205374612F
:103D10007475733A002028697352756E6E696E6708
:103D20002900202853746F70706564290020286969
:103D300073416363656C65726174696E6729002005
:103D4000286973446563656C65726174696E67297F
:103D50000020286973526561636865642900202822
:103D600069734C696D69746564290020286973451D
:103D700053746F7070656429004D6F746F722043C7
:103D80006F6E6669673A00202846756C6C002028C3
:103D900048616C660020285175617274657200205C
:103DA00028456967687468002028536978746565D8
:103DB0006E7468005374657029002028646973610B
:103DC000626C654D6F746F724F6E4553746F7029DE
:103DD00000202864697361626C654D6F746F724F67
:103DE0006E506F736974696F6E5265616368656464
:103DF0002900202873746F704F6E4C696D6974537D
:103E00007769746368507265737329004D6F746FBE
:103E100072204D6F64653A00202872756E546F50A1
:103E20006F732900202872756E546F506F73576935
:103E30007468416363656C2900202872756E436F56
:103E40006E74696E756F75732900202868617264DD
:103E500053746F702900202864697361626C654D2A
:103E60006F746F72290043757272656E7420706F83
:103E7000736974696F6E3A200044697374616E638C
:103E80006520746F20676F3A20004D6F76653A2089
:103E900000556E6C6F636B206D6F7665204E564DCE
:103EA0003A203078004D6F766520746F3A20004DCF
:103EB00061782053706565643A2000416363656CE6
:103EC00065726174696F6E3A2000556E6C6F636B3A
:103ED000207370656564204E564D3A203078004856
:103EE0006F6C6420766F6C746167653A20005600D1
:103EF00052756E20766F6C746167653A20004932A6
:103F00004320616464726573733A20307800504FC7
:103F100052206D6F76653A2000504F5220737065C5
:103F200065643A2000454550524F4D2065726173DB
:103F3000656400556E6B6E6F776E3A20004C696D4C
:103F400069742072656C65617365642100697352E0
:103F500065616368656420696E74657272757074FA
:103F6000210069734C696D6974656420696E7465BC
:103F70007272757074210052756E6E696E6720766C
:103F80006F6C7461676500486F6C64696E6720765A
:083F90006F6C746167650000AD
:107E0000112484B714BE81FFF0D085E080938100F7
:107E100082E08093C00088E18093C10086E0809377
:107E2000C20080E18093C4008EE0C9D0259A86E02C
:107E300020E33CEF91E0309385002093840096BBD3
:107E4000B09BFECF1D9AA8958150A9F7CC24DD24C4
:107E500088248394B5E0AB2EA1E19A2EF3E0BF2EE7
:107E6000A2D0813461F49FD0082FAFD0023811F036
:107E7000013811F484E001C083E08DD089C08234E0
:107E800011F484E103C0853419F485E0A6D080C0E4
:107E9000853579F488D0E82EFF2485D0082F10E0AE
:107EA000102F00270E291F29000F111F8ED06801E7
:107EB0006FC0863521F484E090D080E0DECF843638
:107EC00009F040C070D06FD0082F6DD080E0C81688
:107ED00080E7D80618F4F601B7BEE895C0E0D1E017
:107EE00062D089930C17E1F7F0E0CF16F0E7DF06D8
:107EF00018F0F601B7BEE89568D007B600FCFDCFD4
:107F0000A601A0E0B1E02C9130E011968C91119780
:107F100090E0982F8827822B932B1296FA010C0160
:107F200087BEE89511244E5F5F4FF1E0A038BF0790
:107F300051F7F601A7BEE89507B600FCFDCF97BE46
:107F4000E89526C08437B1F42ED02DD0F82E2BD052
:107F50003CD0F601EF2C8F010F5F1F4F84911BD097
:107F6000EA94F801C1F70894C11CD11CFA94CF0C13
:107F7000D11C0EC0853739F428D08EE10CD085E9AC
:107F80000AD08FE07ACF813511F488E018D01DD067
:107F900080E101D065CF982F8091C00085FFFCCF94
:107FA0009093C60008958091C00087FFFCCF809118
:107FB000C00084FD01C0A8958091C6000895E0E648
:107FC000F0E098E1908380830895EDDF803219F02E
:107FD00088E0F5DFFFCF84E1DECF1F93182FE3DFCA
:107FE0001150E9F7F2DF1F91089580E0E8DFEE27F6
:047FF000FF270994CA
:027FFE00040479
:00000001FF
